{
	"simpleStorage.sol": {
		"SimpleStorage": {
			"abi": [
				{
					"inputs": [
						{
							"internalType": "uint256",
							"name": "id",
							"type": "uint256"
						},
						{
							"internalType": "string",
							"name": "_name",
							"type": "string"
						}
					],
					"name": "addStudent",
					"outputs": [],
					"stateMutability": "nonpayable",
					"type": "function"
				},
				{
					"inputs": [
						{
							"internalType": "string",
							"name": "name",
							"type": "string"
						},
						{
							"internalType": "uint256",
							"name": "_marks",
							"type": "uint256"
						}
					],
					"name": "addToMap",
					"outputs": [],
					"stateMutability": "nonpayable",
					"type": "function"
				},
				{
					"inputs": [],
					"name": "getVal",
					"outputs": [
						{
							"internalType": "uint256",
							"name": "",
							"type": "uint256"
						}
					],
					"stateMutability": "view",
					"type": "function"
				},
				{
					"inputs": [
						{
							"internalType": "uint256",
							"name": "",
							"type": "uint256"
						}
					],
					"name": "list",
					"outputs": [
						{
							"internalType": "uint256",
							"name": "id",
							"type": "uint256"
						},
						{
							"internalType": "string",
							"name": "name",
							"type": "string"
						}
					],
					"stateMutability": "view",
					"type": "function"
				},
				{
					"inputs": [
						{
							"internalType": "string",
							"name": "",
							"type": "string"
						}
					],
					"name": "marks",
					"outputs": [
						{
							"internalType": "uint256",
							"name": "",
							"type": "uint256"
						}
					],
					"stateMutability": "view",
					"type": "function"
				},
				{
					"inputs": [],
					"name": "purefunction",
					"outputs": [
						{
							"internalType": "uint256",
							"name": "",
							"type": "uint256"
						}
					],
					"stateMutability": "pure",
					"type": "function"
				},
				{
					"inputs": [
						{
							"internalType": "uint256",
							"name": "_value",
							"type": "uint256"
						}
					],
					"name": "setVal",
					"outputs": [],
					"stateMutability": "nonpayable",
					"type": "function"
				},
				{
					"inputs": [
						{
							"internalType": "uint256",
							"name": "_inputValue",
							"type": "uint256"
						}
					],
					"name": "specialFunction",
					"outputs": [],
					"stateMutability": "nonpayable",
					"type": "function"
				},
				{
					"inputs": [],
					"name": "student1",
					"outputs": [
						{
							"internalType": "uint256",
							"name": "id",
							"type": "uint256"
						},
						{
							"internalType": "string",
							"name": "name",
							"type": "string"
						}
					],
					"stateMutability": "view",
					"type": "function"
				},
				{
					"inputs": [],
					"name": "student2",
					"outputs": [
						{
							"internalType": "uint256",
							"name": "id",
							"type": "uint256"
						},
						{
							"internalType": "string",
							"name": "name",
							"type": "string"
						}
					],
					"stateMutability": "view",
					"type": "function"
				},
				{
					"inputs": [],
					"name": "value",
					"outputs": [
						{
							"internalType": "uint256",
							"name": "",
							"type": "uint256"
						}
					],
					"stateMutability": "view",
					"type": "function"
				}
			],
			"devdoc": {
				"kind": "dev",
				"methods": {},
				"version": 1
			},
			"evm": {
				"assembly": "    /* \"simpleStorage.sol\":58:2304  contract SimpleStorage {... */\n  mstore(0x40, 0x80)\n    /* \"simpleStorage.sol\":184:186  56 */\n  0x38\n    /* \"simpleStorage.sol\":162:186  uint256 secretValue = 56 */\n  0x01\n  sstore\n    /* \"simpleStorage.sol\":1146:1164  Student(0,\"Rohit\") */\n  mload(0x40)\n  dup1\n  0x40\n  add\n  0x40\n  mstore\n  dup1\n    /* \"simpleStorage.sol\":1154:1155  0 */\n  0x00\n    /* \"simpleStorage.sol\":1146:1164  Student(0,\"Rohit\") */\n  dup2\n  mstore\n  0x20\n  add\n  mload(0x40)\n  dup1\n  0x40\n  add\n  0x40\n  mstore\n  dup1\n  0x05\n  dup2\n  mstore\n  0x20\n  add\n  0x526f686974000000000000000000000000000000000000000000000000000000\n  dup2\n  mstore\n  pop\n  dup2\n  mstore\n  pop\n    /* \"simpleStorage.sol\":1120:1164  Student public student1 = Student(0,\"Rohit\") */\n  0x02\n  0x00\n  dup3\n  add\n  mload\n  dup2\n  0x00\n  add\n  sstore\n  0x20\n  dup3\n  add\n  mload\n  dup2\n  0x01\n  add\n  swap1\n  dup2\n  tag_1\n  swap2\n  swap1\n  tag_2\n  jump\t// in\ntag_1:\n  pop\n  pop\n  pop\n    /* \"simpleStorage.sol\":1196:1226  Student({id: 4,name:\"Deepak\"}) */\n  mload(0x40)\n  dup1\n  0x40\n  add\n  0x40\n  mstore\n  dup1\n    /* \"simpleStorage.sol\":1209:1210  4 */\n  0x04\n    /* \"simpleStorage.sol\":1196:1226  Student({id: 4,name:\"Deepak\"}) */\n  dup2\n  mstore\n  0x20\n  add\n  mload(0x40)\n  dup1\n  0x40\n  add\n  0x40\n  mstore\n  dup1\n  0x06\n  dup2\n  mstore\n  0x20\n  add\n  0x44656570616b0000000000000000000000000000000000000000000000000000\n  dup2\n  mstore\n  pop\n  dup2\n  mstore\n  pop\n    /* \"simpleStorage.sol\":1170:1226  Student public student2 = Student({id: 4,name:\"Deepak\"}) */\n  0x04\n  0x00\n  dup3\n  add\n  mload\n  dup2\n  0x00\n  add\n  sstore\n  0x20\n  dup3\n  add\n  mload\n  dup2\n  0x01\n  add\n  swap1\n  dup2\n  tag_3\n  swap2\n  swap1\n  tag_2\n  jump\t// in\ntag_3:\n  pop\n  pop\n  pop\n    /* \"simpleStorage.sol\":58:2304  contract SimpleStorage {... */\n  callvalue\n  dup1\n  iszero\n  tag_4\n  jumpi\n  0x00\n  dup1\n  revert\ntag_4:\n  pop\n  jump(tag_5)\n    /* \"#utility.yul\":7:106   */\ntag_6:\n    /* \"#utility.yul\":59:65   */\n  0x00\n    /* \"#utility.yul\":93:98   */\n  dup2\n    /* \"#utility.yul\":87:99   */\n  mload\n    /* \"#utility.yul\":77:99   */\n  swap1\n  pop\n    /* \"#utility.yul\":7:106   */\n  swap2\n  swap1\n  pop\n  jump\t// out\n    /* \"#utility.yul\":112:292   */\ntag_7:\n    /* \"#utility.yul\":160:237   */\n  0x4e487b7100000000000000000000000000000000000000000000000000000000\n    /* \"#utility.yul\":157:158   */\n  0x00\n    /* \"#utility.yul\":150:238   */\n  mstore\n    /* \"#utility.yul\":257:261   */\n  0x41\n    /* \"#utility.yul\":254:255   */\n  0x04\n    /* \"#utility.yul\":247:262   */\n  mstore\n    /* \"#utility.yul\":281:285   */\n  0x24\n    /* \"#utility.yul\":278:279   */\n  0x00\n    /* \"#utility.yul\":271:286   */\n  revert\n    /* \"#utility.yul\":298:478   */\ntag_8:\n    /* \"#utility.yul\":346:423   */\n  0x4e487b7100000000000000000000000000000000000000000000000000000000\n    /* \"#utility.yul\":343:344   */\n  0x00\n    /* \"#utility.yul\":336:424   */\n  mstore\n    /* \"#utility.yul\":443:447   */\n  0x22\n    /* \"#utility.yul\":440:441   */\n  0x04\n    /* \"#utility.yul\":433:448   */\n  mstore\n    /* \"#utility.yul\":467:471   */\n  0x24\n    /* \"#utility.yul\":464:465   */\n  0x00\n    /* \"#utility.yul\":457:472   */\n  revert\n    /* \"#utility.yul\":484:804   */\ntag_9:\n    /* \"#utility.yul\":528:534   */\n  0x00\n    /* \"#utility.yul\":565:566   */\n  0x02\n    /* \"#utility.yul\":559:563   */\n  dup3\n    /* \"#utility.yul\":555:567   */\n  div\n    /* \"#utility.yul\":545:567   */\n  swap1\n  pop\n    /* \"#utility.yul\":612:613   */\n  0x01\n    /* \"#utility.yul\":606:610   */\n  dup3\n    /* \"#utility.yul\":602:614   */\n  and\n    /* \"#utility.yul\":633:651   */\n  dup1\n    /* \"#utility.yul\":623:704   */\n  tag_31\n  jumpi\n    /* \"#utility.yul\":689:693   */\n  0x7f\n    /* \"#utility.yul\":681:687   */\n  dup3\n    /* \"#utility.yul\":677:694   */\n  and\n    /* \"#utility.yul\":667:694   */\n  swap2\n  pop\n    /* \"#utility.yul\":623:704   */\ntag_31:\n    /* \"#utility.yul\":751:753   */\n  0x20\n    /* \"#utility.yul\":743:749   */\n  dup3\n    /* \"#utility.yul\":740:754   */\n  lt\n    /* \"#utility.yul\":720:738   */\n  dup2\n    /* \"#utility.yul\":717:755   */\n  sub\n    /* \"#utility.yul\":714:798   */\n  tag_32\n  jumpi\n    /* \"#utility.yul\":770:788   */\n  tag_33\n  tag_8\n  jump\t// in\ntag_33:\n    /* \"#utility.yul\":714:798   */\ntag_32:\n    /* \"#utility.yul\":535:804   */\n  pop\n    /* \"#utility.yul\":484:804   */\n  swap2\n  swap1\n  pop\n  jump\t// out\n    /* \"#utility.yul\":810:951   */\ntag_10:\n    /* \"#utility.yul\":859:863   */\n  0x00\n    /* \"#utility.yul\":882:885   */\n  dup2\n    /* \"#utility.yul\":874:885   */\n  swap1\n  pop\n    /* \"#utility.yul\":905:908   */\n  dup2\n    /* \"#utility.yul\":902:903   */\n  0x00\n    /* \"#utility.yul\":895:909   */\n  mstore\n    /* \"#utility.yul\":939:943   */\n  0x20\n    /* \"#utility.yul\":936:937   */\n  0x00\n    /* \"#utility.yul\":926:944   */\n  keccak256\n    /* \"#utility.yul\":918:944   */\n  swap1\n  pop\n    /* \"#utility.yul\":810:951   */\n  swap2\n  swap1\n  pop\n  jump\t// out\n    /* \"#utility.yul\":957:1050   */\ntag_11:\n    /* \"#utility.yul\":994:1000   */\n  0x00\n    /* \"#utility.yul\":1041:1043   */\n  0x20\n    /* \"#utility.yul\":1036:1038   */\n  0x1f\n    /* \"#utility.yul\":1029:1034   */\n  dup4\n    /* \"#utility.yul\":1025:1039   */\n  add\n    /* \"#utility.yul\":1021:1044   */\n  div\n    /* \"#utility.yul\":1011:1044   */\n  swap1\n  pop\n    /* \"#utility.yul\":957:1050   */\n  swap2\n  swap1\n  pop\n  jump\t// out\n    /* \"#utility.yul\":1056:1163   */\ntag_12:\n    /* \"#utility.yul\":1100:1108   */\n  0x00\n    /* \"#utility.yul\":1150:1155   */\n  dup3\n    /* \"#utility.yul\":1144:1148   */\n  dup3\n    /* \"#utility.yul\":1140:1156   */\n  shl\n    /* \"#utility.yul\":1119:1156   */\n  swap1\n  pop\n    /* \"#utility.yul\":1056:1163   */\n  swap3\n  swap2\n  pop\n  pop\n  jump\t// out\n    /* \"#utility.yul\":1169:1562   */\ntag_13:\n    /* \"#utility.yul\":1238:1244   */\n  0x00\n    /* \"#utility.yul\":1288:1289   */\n  0x08\n    /* \"#utility.yul\":1276:1286   */\n  dup4\n    /* \"#utility.yul\":1272:1290   */\n  mul\n    /* \"#utility.yul\":1311:1408   */\n  tag_38\n    /* \"#utility.yul\":1341:1407   */\n  0xffffffffffffffffffffffffffffffffffffffffffffffffffffffffffffffff\n    /* \"#utility.yul\":1330:1339   */\n  dup3\n    /* \"#utility.yul\":1311:1408   */\n  tag_12\n  jump\t// in\ntag_38:\n    /* \"#utility.yul\":1429:1468   */\n  tag_39\n    /* \"#utility.yul\":1459:1467   */\n  dup7\n    /* \"#utility.yul\":1448:1457   */\n  dup4\n    /* \"#utility.yul\":1429:1468   */\n  tag_12\n  jump\t// in\ntag_39:\n    /* \"#utility.yul\":1417:1468   */\n  swap6\n  pop\n    /* \"#utility.yul\":1501:1505   */\n  dup1\n    /* \"#utility.yul\":1497:1506   */\n  not\n    /* \"#utility.yul\":1490:1495   */\n  dup5\n    /* \"#utility.yul\":1486:1507   */\n  and\n    /* \"#utility.yul\":1477:1507   */\n  swap4\n  pop\n    /* \"#utility.yul\":1550:1554   */\n  dup1\n    /* \"#utility.yul\":1540:1548   */\n  dup7\n    /* \"#utility.yul\":1536:1555   */\n  and\n    /* \"#utility.yul\":1529:1534   */\n  dup5\n    /* \"#utility.yul\":1526:1556   */\n  or\n    /* \"#utility.yul\":1516:1556   */\n  swap3\n  pop\n    /* \"#utility.yul\":1245:1562   */\n  pop\n  pop\n    /* \"#utility.yul\":1169:1562   */\n  swap4\n  swap3\n  pop\n  pop\n  pop\n  jump\t// out\n    /* \"#utility.yul\":1568:1645   */\ntag_14:\n    /* \"#utility.yul\":1605:1612   */\n  0x00\n    /* \"#utility.yul\":1634:1639   */\n  dup2\n    /* \"#utility.yul\":1623:1639   */\n  swap1\n  pop\n    /* \"#utility.yul\":1568:1645   */\n  swap2\n  swap1\n  pop\n  jump\t// out\n    /* \"#utility.yul\":1651:1711   */\ntag_15:\n    /* \"#utility.yul\":1679:1682   */\n  0x00\n    /* \"#utility.yul\":1700:1705   */\n  dup2\n    /* \"#utility.yul\":1693:1705   */\n  swap1\n  pop\n    /* \"#utility.yul\":1651:1711   */\n  swap2\n  swap1\n  pop\n  jump\t// out\n    /* \"#utility.yul\":1717:1859   */\ntag_16:\n    /* \"#utility.yul\":1767:1776   */\n  0x00\n    /* \"#utility.yul\":1800:1853   */\n  tag_43\n    /* \"#utility.yul\":1818:1852   */\n  tag_44\n    /* \"#utility.yul\":1827:1851   */\n  tag_45\n    /* \"#utility.yul\":1845:1850   */\n  dup5\n    /* \"#utility.yul\":1827:1851   */\n  tag_14\n  jump\t// in\ntag_45:\n    /* \"#utility.yul\":1818:1852   */\n  tag_15\n  jump\t// in\ntag_44:\n    /* \"#utility.yul\":1800:1853   */\n  tag_14\n  jump\t// in\ntag_43:\n    /* \"#utility.yul\":1787:1853   */\n  swap1\n  pop\n    /* \"#utility.yul\":1717:1859   */\n  swap2\n  swap1\n  pop\n  jump\t// out\n    /* \"#utility.yul\":1865:1940   */\ntag_17:\n    /* \"#utility.yul\":1908:1911   */\n  0x00\n    /* \"#utility.yul\":1929:1934   */\n  dup2\n    /* \"#utility.yul\":1922:1934   */\n  swap1\n  pop\n    /* \"#utility.yul\":1865:1940   */\n  swap2\n  swap1\n  pop\n  jump\t// out\n    /* \"#utility.yul\":1946:2215   */\ntag_18:\n    /* \"#utility.yul\":2056:2095   */\n  tag_48\n    /* \"#utility.yul\":2087:2094   */\n  dup4\n    /* \"#utility.yul\":2056:2095   */\n  tag_16\n  jump\t// in\ntag_48:\n    /* \"#utility.yul\":2117:2208   */\n  tag_49\n    /* \"#utility.yul\":2166:2207   */\n  tag_50\n    /* \"#utility.yul\":2190:2206   */\n  dup3\n    /* \"#utility.yul\":2166:2207   */\n  tag_17\n  jump\t// in\ntag_50:\n    /* \"#utility.yul\":2158:2164   */\n  dup5\n    /* \"#utility.yul\":2151:2155   */\n  dup5\n    /* \"#utility.yul\":2145:2156   */\n  sload\n    /* \"#utility.yul\":2117:2208   */\n  tag_13\n  jump\t// in\ntag_49:\n    /* \"#utility.yul\":2111:2115   */\n  dup3\n    /* \"#utility.yul\":2104:2209   */\n  sstore\n    /* \"#utility.yul\":2022:2215   */\n  pop\n    /* \"#utility.yul\":1946:2215   */\n  pop\n  pop\n  pop\n  jump\t// out\n    /* \"#utility.yul\":2221:2294   */\ntag_19:\n    /* \"#utility.yul\":2266:2269   */\n  0x00\n    /* \"#utility.yul\":2221:2294   */\n  swap1\n  jump\t// out\n    /* \"#utility.yul\":2300:2489   */\ntag_20:\n    /* \"#utility.yul\":2377:2409   */\n  tag_53\n  tag_19\n  jump\t// in\ntag_53:\n    /* \"#utility.yul\":2418:2483   */\n  tag_54\n    /* \"#utility.yul\":2476:2482   */\n  dup2\n    /* \"#utility.yul\":2468:2474   */\n  dup5\n    /* \"#utility.yul\":2462:2466   */\n  dup5\n    /* \"#utility.yul\":2418:2483   */\n  tag_18\n  jump\t// in\ntag_54:\n    /* \"#utility.yul\":2353:2489   */\n  pop\n    /* \"#utility.yul\":2300:2489   */\n  pop\n  pop\n  jump\t// out\n    /* \"#utility.yul\":2495:2681   */\ntag_21:\n    /* \"#utility.yul\":2555:2675   */\ntag_56:\n    /* \"#utility.yul\":2572:2575   */\n  dup2\n    /* \"#utility.yul\":2565:2570   */\n  dup2\n    /* \"#utility.yul\":2562:2576   */\n  lt\n    /* \"#utility.yul\":2555:2675   */\n  iszero\n  tag_58\n  jumpi\n    /* \"#utility.yul\":2626:2665   */\n  tag_59\n    /* \"#utility.yul\":2663:2664   */\n  0x00\n    /* \"#utility.yul\":2656:2661   */\n  dup3\n    /* \"#utility.yul\":2626:2665   */\n  tag_20\n  jump\t// in\ntag_59:\n    /* \"#utility.yul\":2599:2600   */\n  0x01\n    /* \"#utility.yul\":2592:2597   */\n  dup2\n    /* \"#utility.yul\":2588:2601   */\n  add\n    /* \"#utility.yul\":2579:2601   */\n  swap1\n  pop\n    /* \"#utility.yul\":2555:2675   */\n  jump(tag_56)\ntag_58:\n    /* \"#utility.yul\":2495:2681   */\n  pop\n  pop\n  jump\t// out\n    /* \"#utility.yul\":2687:3230   */\ntag_22:\n    /* \"#utility.yul\":2788:2790   */\n  0x1f\n    /* \"#utility.yul\":2783:2786   */\n  dup3\n    /* \"#utility.yul\":2780:2791   */\n  gt\n    /* \"#utility.yul\":2777:3223   */\n  iszero\n  tag_61\n  jumpi\n    /* \"#utility.yul\":2822:2860   */\n  tag_62\n    /* \"#utility.yul\":2854:2859   */\n  dup2\n    /* \"#utility.yul\":2822:2860   */\n  tag_10\n  jump\t// in\ntag_62:\n    /* \"#utility.yul\":2906:2935   */\n  tag_63\n    /* \"#utility.yul\":2924:2934   */\n  dup5\n    /* \"#utility.yul\":2906:2935   */\n  tag_11\n  jump\t// in\ntag_63:\n    /* \"#utility.yul\":2896:2904   */\n  dup2\n    /* \"#utility.yul\":2892:2936   */\n  add\n    /* \"#utility.yul\":3089:3091   */\n  0x20\n    /* \"#utility.yul\":3077:3087   */\n  dup6\n    /* \"#utility.yul\":3074:3092   */\n  lt\n    /* \"#utility.yul\":3071:3120   */\n  iszero\n  tag_64\n  jumpi\n    /* \"#utility.yul\":3110:3118   */\n  dup2\n    /* \"#utility.yul\":3095:3118   */\n  swap1\n  pop\n    /* \"#utility.yul\":3071:3120   */\ntag_64:\n    /* \"#utility.yul\":3133:3213   */\n  tag_65\n    /* \"#utility.yul\":3189:3211   */\n  tag_66\n    /* \"#utility.yul\":3207:3210   */\n  dup6\n    /* \"#utility.yul\":3189:3211   */\n  tag_11\n  jump\t// in\ntag_66:\n    /* \"#utility.yul\":3179:3187   */\n  dup4\n    /* \"#utility.yul\":3175:3212   */\n  add\n    /* \"#utility.yul\":3162:3173   */\n  dup3\n    /* \"#utility.yul\":3133:3213   */\n  tag_21\n  jump\t// in\ntag_65:\n    /* \"#utility.yul\":2792:3223   */\n  pop\n  pop\n    /* \"#utility.yul\":2777:3223   */\ntag_61:\n    /* \"#utility.yul\":2687:3230   */\n  pop\n  pop\n  pop\n  jump\t// out\n    /* \"#utility.yul\":3236:3353   */\ntag_23:\n    /* \"#utility.yul\":3290:3298   */\n  0x00\n    /* \"#utility.yul\":3340:3345   */\n  dup3\n    /* \"#utility.yul\":3334:3338   */\n  dup3\n    /* \"#utility.yul\":3330:3346   */\n  shr\n    /* \"#utility.yul\":3309:3346   */\n  swap1\n  pop\n    /* \"#utility.yul\":3236:3353   */\n  swap3\n  swap2\n  pop\n  pop\n  jump\t// out\n    /* \"#utility.yul\":3359:3528   */\ntag_24:\n    /* \"#utility.yul\":3403:3409   */\n  0x00\n    /* \"#utility.yul\":3436:3487   */\n  tag_69\n    /* \"#utility.yul\":3484:3485   */\n  0x00\n    /* \"#utility.yul\":3480:3486   */\n  not\n    /* \"#utility.yul\":3472:3477   */\n  dup5\n    /* \"#utility.yul\":3469:3470   */\n  0x08\n    /* \"#utility.yul\":3465:3478   */\n  mul\n    /* \"#utility.yul\":3436:3487   */\n  tag_23\n  jump\t// in\ntag_69:\n    /* \"#utility.yul\":3432:3488   */\n  not\n    /* \"#utility.yul\":3517:3521   */\n  dup1\n    /* \"#utility.yul\":3511:3515   */\n  dup4\n    /* \"#utility.yul\":3507:3522   */\n  and\n    /* \"#utility.yul\":3497:3522   */\n  swap2\n  pop\n    /* \"#utility.yul\":3410:3528   */\n  pop\n    /* \"#utility.yul\":3359:3528   */\n  swap3\n  swap2\n  pop\n  pop\n  jump\t// out\n    /* \"#utility.yul\":3533:3828   */\ntag_25:\n    /* \"#utility.yul\":3609:3613   */\n  0x00\n    /* \"#utility.yul\":3755:3784   */\n  tag_71\n    /* \"#utility.yul\":3780:3783   */\n  dup4\n    /* \"#utility.yul\":3774:3778   */\n  dup4\n    /* \"#utility.yul\":3755:3784   */\n  tag_24\n  jump\t// in\ntag_71:\n    /* \"#utility.yul\":3747:3784   */\n  swap2\n  pop\n    /* \"#utility.yul\":3817:3820   */\n  dup3\n    /* \"#utility.yul\":3814:3815   */\n  0x02\n    /* \"#utility.yul\":3810:3821   */\n  mul\n    /* \"#utility.yul\":3804:3808   */\n  dup3\n    /* \"#utility.yul\":3801:3822   */\n  or\n    /* \"#utility.yul\":3793:3822   */\n  swap1\n  pop\n    /* \"#utility.yul\":3533:3828   */\n  swap3\n  swap2\n  pop\n  pop\n  jump\t// out\n    /* \"#utility.yul\":3833:5228   */\ntag_2:\n    /* \"#utility.yul\":3950:3987   */\n  tag_73\n    /* \"#utility.yul\":3983:3986   */\n  dup3\n    /* \"#utility.yul\":3950:3987   */\n  tag_6\n  jump\t// in\ntag_73:\n    /* \"#utility.yul\":4052:4070   */\n  0xffffffffffffffff\n    /* \"#utility.yul\":4044:4050   */\n  dup2\n    /* \"#utility.yul\":4041:4071   */\n  gt\n    /* \"#utility.yul\":4038:4094   */\n  iszero\n  tag_74\n  jumpi\n    /* \"#utility.yul\":4074:4092   */\n  tag_75\n  tag_7\n  jump\t// in\ntag_75:\n    /* \"#utility.yul\":4038:4094   */\ntag_74:\n    /* \"#utility.yul\":4118:4156   */\n  tag_76\n    /* \"#utility.yul\":4150:4154   */\n  dup3\n    /* \"#utility.yul\":4144:4155   */\n  sload\n    /* \"#utility.yul\":4118:4156   */\n  tag_9\n  jump\t// in\ntag_76:\n    /* \"#utility.yul\":4203:4270   */\n  tag_77\n    /* \"#utility.yul\":4263:4269   */\n  dup3\n    /* \"#utility.yul\":4255:4261   */\n  dup3\n    /* \"#utility.yul\":4249:4253   */\n  dup6\n    /* \"#utility.yul\":4203:4270   */\n  tag_22\n  jump\t// in\ntag_77:\n    /* \"#utility.yul\":4297:4298   */\n  0x00\n    /* \"#utility.yul\":4321:4325   */\n  0x20\n    /* \"#utility.yul\":4308:4325   */\n  swap1\n  pop\n    /* \"#utility.yul\":4353:4355   */\n  0x1f\n    /* \"#utility.yul\":4345:4351   */\n  dup4\n    /* \"#utility.yul\":4342:4356   */\n  gt\n    /* \"#utility.yul\":4370:4371   */\n  0x01\n    /* \"#utility.yul\":4365:4983   */\n  dup2\n  eq\n  tag_79\n  jumpi\n    /* \"#utility.yul\":5027:5028   */\n  0x00\n    /* \"#utility.yul\":5044:5050   */\n  dup5\n    /* \"#utility.yul\":5041:5118   */\n  iszero\n  tag_80\n  jumpi\n    /* \"#utility.yul\":5093:5102   */\n  dup3\n    /* \"#utility.yul\":5088:5091   */\n  dup8\n    /* \"#utility.yul\":5084:5103   */\n  add\n    /* \"#utility.yul\":5078:5104   */\n  mload\n    /* \"#utility.yul\":5069:5104   */\n  swap1\n  pop\n    /* \"#utility.yul\":5041:5118   */\ntag_80:\n    /* \"#utility.yul\":5144:5211   */\n  tag_81\n    /* \"#utility.yul\":5204:5210   */\n  dup6\n    /* \"#utility.yul\":5197:5202   */\n  dup3\n    /* \"#utility.yul\":5144:5211   */\n  tag_25\n  jump\t// in\ntag_81:\n    /* \"#utility.yul\":5138:5142   */\n  dup7\n    /* \"#utility.yul\":5131:5212   */\n  sstore\n    /* \"#utility.yul\":5000:5222   */\n  pop\n    /* \"#utility.yul\":4335:5222   */\n  jump(tag_78)\n    /* \"#utility.yul\":4365:4983   */\ntag_79:\n    /* \"#utility.yul\":4417:4421   */\n  0x1f\n    /* \"#utility.yul\":4413:4422   */\n  not\n    /* \"#utility.yul\":4405:4411   */\n  dup5\n    /* \"#utility.yul\":4401:4423   */\n  and\n    /* \"#utility.yul\":4451:4488   */\n  tag_82\n    /* \"#utility.yul\":4483:4487   */\n  dup7\n    /* \"#utility.yul\":4451:4488   */\n  tag_10\n  jump\t// in\ntag_82:\n    /* \"#utility.yul\":4510:4511   */\n  0x00\n    /* \"#utility.yul\":4524:4732   */\ntag_83:\n    /* \"#utility.yul\":4538:4545   */\n  dup3\n    /* \"#utility.yul\":4535:4536   */\n  dup2\n    /* \"#utility.yul\":4532:4546   */\n  lt\n    /* \"#utility.yul\":4524:4732   */\n  iszero\n  tag_85\n  jumpi\n    /* \"#utility.yul\":4617:4626   */\n  dup5\n    /* \"#utility.yul\":4612:4615   */\n  dup10\n    /* \"#utility.yul\":4608:4627   */\n  add\n    /* \"#utility.yul\":4602:4628   */\n  mload\n    /* \"#utility.yul\":4594:4600   */\n  dup3\n    /* \"#utility.yul\":4587:4629   */\n  sstore\n    /* \"#utility.yul\":4668:4669   */\n  0x01\n    /* \"#utility.yul\":4660:4666   */\n  dup3\n    /* \"#utility.yul\":4656:4670   */\n  add\n    /* \"#utility.yul\":4646:4670   */\n  swap2\n  pop\n    /* \"#utility.yul\":4715:4717   */\n  0x20\n    /* \"#utility.yul\":4704:4713   */\n  dup6\n    /* \"#utility.yul\":4700:4718   */\n  add\n    /* \"#utility.yul\":4687:4718   */\n  swap5\n  pop\n    /* \"#utility.yul\":4561:4565   */\n  0x20\n    /* \"#utility.yul\":4558:4559   */\n  dup2\n    /* \"#utility.yul\":4554:4566   */\n  add\n    /* \"#utility.yul\":4549:4566   */\n  swap1\n  pop\n    /* \"#utility.yul\":4524:4732   */\n  jump(tag_83)\ntag_85:\n    /* \"#utility.yul\":4760:4766   */\n  dup7\n    /* \"#utility.yul\":4751:4758   */\n  dup4\n    /* \"#utility.yul\":4748:4767   */\n  lt\n    /* \"#utility.yul\":4745:4924   */\n  iszero\n  tag_86\n  jumpi\n    /* \"#utility.yul\":4818:4827   */\n  dup5\n    /* \"#utility.yul\":4813:4816   */\n  dup10\n    /* \"#utility.yul\":4809:4828   */\n  add\n    /* \"#utility.yul\":4803:4829   */\n  mload\n    /* \"#utility.yul\":4861:4909   */\n  tag_87\n    /* \"#utility.yul\":4903:4907   */\n  0x1f\n    /* \"#utility.yul\":4895:4901   */\n  dup10\n    /* \"#utility.yul\":4891:4908   */\n  and\n    /* \"#utility.yul\":4880:4889   */\n  dup3\n    /* \"#utility.yul\":4861:4909   */\n  tag_24\n  jump\t// in\ntag_87:\n    /* \"#utility.yul\":4853:4859   */\n  dup4\n    /* \"#utility.yul\":4846:4910   */\n  sstore\n    /* \"#utility.yul\":4768:4924   */\n  pop\n    /* \"#utility.yul\":4745:4924   */\ntag_86:\n    /* \"#utility.yul\":4970:4971   */\n  0x01\n    /* \"#utility.yul\":4966:4967   */\n  0x02\n    /* \"#utility.yul\":4958:4964   */\n  dup9\n    /* \"#utility.yul\":4954:4968   */\n  mul\n    /* \"#utility.yul\":4950:4972   */\n  add\n    /* \"#utility.yul\":4944:4948   */\n  dup9\n    /* \"#utility.yul\":4937:4973   */\n  sstore\n    /* \"#utility.yul\":4372:4983   */\n  pop\n  pop\n  pop\n    /* \"#utility.yul\":4335:5222   */\ntag_78:\n  pop\n    /* \"#utility.yul\":3925:5228   */\n  pop\n  pop\n  pop\n    /* \"#utility.yul\":3833:5228   */\n  pop\n  pop\n  jump\t// out\n    /* \"simpleStorage.sol\":58:2304  contract SimpleStorage {... */\ntag_5:\n  dataSize(sub_0)\n  dup1\n  dataOffset(sub_0)\n  0x00\n  codecopy\n  0x00\n  return\nstop\n\nsub_0: assembly {\n        /* \"simpleStorage.sol\":58:2304  contract SimpleStorage {... */\n      mstore(0x40, 0x80)\n      callvalue\n      dup1\n      iszero\n      tag_1\n      jumpi\n      0x00\n      dup1\n      revert\n    tag_1:\n      pop\n      jumpi(tag_2, lt(calldatasize, 0x04))\n      shr(0xe0, calldataload(0x00))\n      dup1\n      0x4c859944\n      gt\n      tag_14\n      jumpi\n      dup1\n      0x4c859944\n      eq\n      tag_8\n      jumpi\n      dup1\n      0x80c9419e\n      eq\n      tag_9\n      jumpi\n      dup1\n      0xc6b8d7f9\n      eq\n      tag_10\n      jumpi\n      dup1\n      0xcdd6c60c\n      eq\n      tag_11\n      jumpi\n      dup1\n      0xe1cb0e52\n      eq\n      tag_12\n      jumpi\n      dup1\n      0xeb05886b\n      eq\n      tag_13\n      jumpi\n      jump(tag_2)\n    tag_14:\n      dup1\n      0x113abe1f\n      eq\n      tag_3\n      jumpi\n      dup1\n      0x361a80e6\n      eq\n      tag_4\n      jumpi\n      dup1\n      0x3d4197f0\n      eq\n      tag_5\n      jumpi\n      dup1\n      0x3fa4f245\n      eq\n      tag_6\n      jumpi\n      dup1\n      0x42ecc52a\n      eq\n      tag_7\n      jumpi\n    tag_2:\n      0x00\n      dup1\n      revert\n        /* \"simpleStorage.sol\":1170:1226  Student public student2 = Student({id: 4,name:\"Deepak\"}) */\n    tag_3:\n      tag_15\n      tag_16\n      jump\t// in\n    tag_15:\n      mload(0x40)\n      tag_17\n      swap3\n      swap2\n      swap1\n      tag_18\n      jump\t// in\n    tag_17:\n      mload(0x40)\n      dup1\n      swap2\n      sub\n      swap1\n      return\n        /* \"simpleStorage.sol\":1120:1164  Student public student1 = Student(0,\"Rohit\") */\n    tag_4:\n      tag_19\n      tag_20\n      jump\t// in\n    tag_19:\n      mload(0x40)\n      tag_21\n      swap3\n      swap2\n      swap1\n      tag_18\n      jump\t// in\n    tag_21:\n      mload(0x40)\n      dup1\n      swap2\n      sub\n      swap1\n      return\n        /* \"simpleStorage.sol\":228:308  function setVal(uint256 _value) public virtual   {... */\n    tag_5:\n      tag_22\n      0x04\n      dup1\n      calldatasize\n      sub\n      dup2\n      add\n      swap1\n      tag_23\n      swap2\n      swap1\n      tag_24\n      jump\t// in\n    tag_23:\n      tag_25\n      jump\t// in\n    tag_22:\n      stop\n        /* \"simpleStorage.sol\":87:107  uint256 public value */\n    tag_6:\n      tag_26\n      tag_27\n      jump\t// in\n    tag_26:\n      mload(0x40)\n      tag_28\n      swap2\n      swap1\n      tag_29\n      jump\t// in\n    tag_28:\n      mload(0x40)\n      dup1\n      swap2\n      sub\n      swap1\n      return\n        /* \"simpleStorage.sol\":1629:1823  function addStudent(uint256 id,string memory _name) public {... */\n    tag_7:\n      tag_30\n      0x04\n      dup1\n      calldatasize\n      sub\n      dup2\n      add\n      swap1\n      tag_31\n      swap2\n      swap1\n      tag_32\n      jump\t// in\n    tag_31:\n      tag_33\n      jump\t// in\n    tag_30:\n      stop\n        /* \"simpleStorage.sol\":595:672  function purefunction() public pure returns(uint256){... */\n    tag_8:\n      tag_34\n      tag_35\n      jump\t// in\n    tag_34:\n      mload(0x40)\n      tag_36\n      swap2\n      swap1\n      tag_29\n      jump\t// in\n    tag_36:\n      mload(0x40)\n      dup1\n      swap2\n      sub\n      swap1\n      return\n        /* \"simpleStorage.sol\":1289:1310  Student[] public list */\n    tag_9:\n      tag_37\n      0x04\n      dup1\n      calldatasize\n      sub\n      dup2\n      add\n      swap1\n      tag_38\n      swap2\n      swap1\n      tag_24\n      jump\t// in\n    tag_38:\n      tag_39\n      jump\t// in\n    tag_37:\n      mload(0x40)\n      tag_40\n      swap3\n      swap2\n      swap1\n      tag_18\n      jump\t// in\n    tag_40:\n      mload(0x40)\n      dup1\n      swap2\n      sub\n      swap1\n      return\n        /* \"simpleStorage.sol\":2204:2301  function addToMap(string memory name,uint256 _marks) public {... */\n    tag_10:\n      tag_41\n      0x04\n      dup1\n      calldatasize\n      sub\n      dup2\n      add\n      swap1\n      tag_42\n      swap2\n      swap1\n      tag_43\n      jump\t// in\n    tag_42:\n      tag_44\n      jump\t// in\n    tag_41:\n      stop\n        /* \"simpleStorage.sol\":802:973  function specialFunction(uint256 _inputValue) public {... */\n    tag_11:\n      tag_45\n      0x04\n      dup1\n      calldatasize\n      sub\n      dup2\n      add\n      swap1\n      tag_46\n      swap2\n      swap1\n      tag_24\n      jump\t// in\n    tag_46:\n      tag_47\n      jump\t// in\n    tag_45:\n      stop\n        /* \"simpleStorage.sol\":412:493  function getVal() public view returns(uint256){... */\n    tag_12:\n      tag_48\n      tag_49\n      jump\t// in\n    tag_48:\n      mload(0x40)\n      tag_50\n      swap2\n      swap1\n      tag_29\n      jump\t// in\n    tag_50:\n      mload(0x40)\n      dup1\n      swap2\n      sub\n      swap1\n      return\n        /* \"simpleStorage.sol\":2133:2172  mapping(string => uint256) public marks */\n    tag_13:\n      tag_51\n      0x04\n      dup1\n      calldatasize\n      sub\n      dup2\n      add\n      swap1\n      tag_52\n      swap2\n      swap1\n      tag_53\n      jump\t// in\n    tag_52:\n      tag_54\n      jump\t// in\n    tag_51:\n      mload(0x40)\n      tag_55\n      swap2\n      swap1\n      tag_29\n      jump\t// in\n    tag_55:\n      mload(0x40)\n      dup1\n      swap2\n      sub\n      swap1\n      return\n        /* \"simpleStorage.sol\":1170:1226  Student public student2 = Student({id: 4,name:\"Deepak\"}) */\n    tag_16:\n      0x04\n      dup1\n      0x00\n      add\n      sload\n      swap1\n      dup1\n      0x01\n      add\n      dup1\n      sload\n      tag_56\n      swap1\n      tag_57\n      jump\t// in\n    tag_56:\n      dup1\n      0x1f\n      add\n      0x20\n      dup1\n      swap2\n      div\n      mul\n      0x20\n      add\n      mload(0x40)\n      swap1\n      dup2\n      add\n      0x40\n      mstore\n      dup1\n      swap3\n      swap2\n      swap1\n      dup2\n      dup2\n      mstore\n      0x20\n      add\n      dup3\n      dup1\n      sload\n      tag_58\n      swap1\n      tag_57\n      jump\t// in\n    tag_58:\n      dup1\n      iszero\n      tag_59\n      jumpi\n      dup1\n      0x1f\n      lt\n      tag_60\n      jumpi\n      0x0100\n      dup1\n      dup4\n      sload\n      div\n      mul\n      dup4\n      mstore\n      swap2\n      0x20\n      add\n      swap2\n      jump(tag_59)\n    tag_60:\n      dup3\n      add\n      swap2\n      swap1\n      0x00\n      mstore\n      keccak256(0x00, 0x20)\n      swap1\n    tag_61:\n      dup2\n      sload\n      dup2\n      mstore\n      swap1\n      0x01\n      add\n      swap1\n      0x20\n      add\n      dup1\n      dup4\n      gt\n      tag_61\n      jumpi\n      dup3\n      swap1\n      sub\n      0x1f\n      and\n      dup3\n      add\n      swap2\n    tag_59:\n      pop\n      pop\n      pop\n      pop\n      pop\n      swap1\n      pop\n      dup3\n      jump\t// out\n        /* \"simpleStorage.sol\":1120:1164  Student public student1 = Student(0,\"Rohit\") */\n    tag_20:\n      0x02\n      dup1\n      0x00\n      add\n      sload\n      swap1\n      dup1\n      0x01\n      add\n      dup1\n      sload\n      tag_62\n      swap1\n      tag_57\n      jump\t// in\n    tag_62:\n      dup1\n      0x1f\n      add\n      0x20\n      dup1\n      swap2\n      div\n      mul\n      0x20\n      add\n      mload(0x40)\n      swap1\n      dup2\n      add\n      0x40\n      mstore\n      dup1\n      swap3\n      swap2\n      swap1\n      dup2\n      dup2\n      mstore\n      0x20\n      add\n      dup3\n      dup1\n      sload\n      tag_63\n      swap1\n      tag_57\n      jump\t// in\n    tag_63:\n      dup1\n      iszero\n      tag_64\n      jumpi\n      dup1\n      0x1f\n      lt\n      tag_65\n      jumpi\n      0x0100\n      dup1\n      dup4\n      sload\n      div\n      mul\n      dup4\n      mstore\n      swap2\n      0x20\n      add\n      swap2\n      jump(tag_64)\n    tag_65:\n      dup3\n      add\n      swap2\n      swap1\n      0x00\n      mstore\n      keccak256(0x00, 0x20)\n      swap1\n    tag_66:\n      dup2\n      sload\n      dup2\n      mstore\n      swap1\n      0x01\n      add\n      swap1\n      0x20\n      add\n      dup1\n      dup4\n      gt\n      tag_66\n      jumpi\n      dup3\n      swap1\n      sub\n      0x1f\n      and\n      dup3\n      add\n      swap2\n    tag_64:\n      pop\n      pop\n      pop\n      pop\n      pop\n      swap1\n      pop\n      dup3\n      jump\t// out\n        /* \"simpleStorage.sol\":228:308  function setVal(uint256 _value) public virtual   {... */\n    tag_25:\n        /* \"simpleStorage.sol\":295:301  _value */\n      dup1\n        /* \"simpleStorage.sol\":287:292  value */\n      0x00\n        /* \"simpleStorage.sol\":287:301  value = _value */\n      dup2\n      swap1\n      sstore\n      pop\n        /* \"simpleStorage.sol\":228:308  function setVal(uint256 _value) public virtual   {... */\n      pop\n      jump\t// out\n        /* \"simpleStorage.sol\":87:107  uint256 public value */\n    tag_27:\n      sload(0x00)\n      dup2\n      jump\t// out\n        /* \"simpleStorage.sol\":1629:1823  function addStudent(uint256 id,string memory _name) public {... */\n    tag_33:\n        /* \"simpleStorage.sol\":1788:1792  list */\n      0x06\n        /* \"simpleStorage.sol\":1798:1815  Student(id,_name) */\n      mload(0x40)\n      dup1\n      0x40\n      add\n      0x40\n      mstore\n      dup1\n        /* \"simpleStorage.sol\":1806:1808  id */\n      dup5\n        /* \"simpleStorage.sol\":1798:1815  Student(id,_name) */\n      dup2\n      mstore\n      0x20\n      add\n        /* \"simpleStorage.sol\":1809:1814  _name */\n      dup4\n        /* \"simpleStorage.sol\":1798:1815  Student(id,_name) */\n      dup2\n      mstore\n      pop\n        /* \"simpleStorage.sol\":1788:1816  list.push(Student(id,_name)) */\n      swap1\n      dup1\n      0x01\n      dup2\n      sload\n      add\n      dup1\n      dup3\n      sstore\n      dup1\n      swap2\n      pop\n      pop\n      0x01\n      swap1\n      sub\n      swap1\n      0x00\n      mstore\n      keccak256(0x00, 0x20)\n      swap1\n      0x02\n      mul\n      add\n      0x00\n      swap1\n      swap2\n      swap1\n      swap2\n      swap1\n      swap2\n      pop\n      0x00\n      dup3\n      add\n      mload\n      dup2\n      0x00\n      add\n      sstore\n      0x20\n      dup3\n      add\n      mload\n      dup2\n      0x01\n      add\n      swap1\n      dup2\n      tag_70\n      swap2\n      swap1\n      tag_71\n      jump\t// in\n    tag_70:\n      pop\n      pop\n      pop\n        /* \"simpleStorage.sol\":1629:1823  function addStudent(uint256 id,string memory _name) public {... */\n      pop\n      pop\n      jump\t// out\n        /* \"simpleStorage.sol\":595:672  function purefunction() public pure returns(uint256){... */\n    tag_35:\n        /* \"simpleStorage.sol\":639:646  uint256 */\n      0x00\n        /* \"simpleStorage.sol\":664:665  7 */\n      0x07\n        /* \"simpleStorage.sol\":657:665  return 7 */\n      swap1\n      pop\n        /* \"simpleStorage.sol\":595:672  function purefunction() public pure returns(uint256){... */\n      swap1\n      jump\t// out\n        /* \"simpleStorage.sol\":1289:1310  Student[] public list */\n    tag_39:\n      0x06\n      dup2\n      dup2\n      sload\n      dup2\n      lt\n      tag_73\n      jumpi\n      0x00\n      dup1\n      revert\n    tag_73:\n      swap1\n      0x00\n      mstore\n      keccak256(0x00, 0x20)\n      swap1\n      0x02\n      mul\n      add\n      0x00\n      swap2\n      pop\n      swap1\n      pop\n      dup1\n      0x00\n      add\n      sload\n      swap1\n      dup1\n      0x01\n      add\n      dup1\n      sload\n      tag_75\n      swap1\n      tag_57\n      jump\t// in\n    tag_75:\n      dup1\n      0x1f\n      add\n      0x20\n      dup1\n      swap2\n      div\n      mul\n      0x20\n      add\n      mload(0x40)\n      swap1\n      dup2\n      add\n      0x40\n      mstore\n      dup1\n      swap3\n      swap2\n      swap1\n      dup2\n      dup2\n      mstore\n      0x20\n      add\n      dup3\n      dup1\n      sload\n      tag_76\n      swap1\n      tag_57\n      jump\t// in\n    tag_76:\n      dup1\n      iszero\n      tag_77\n      jumpi\n      dup1\n      0x1f\n      lt\n      tag_78\n      jumpi\n      0x0100\n      dup1\n      dup4\n      sload\n      div\n      mul\n      dup4\n      mstore\n      swap2\n      0x20\n      add\n      swap2\n      jump(tag_77)\n    tag_78:\n      dup3\n      add\n      swap2\n      swap1\n      0x00\n      mstore\n      keccak256(0x00, 0x20)\n      swap1\n    tag_79:\n      dup2\n      sload\n      dup2\n      mstore\n      swap1\n      0x01\n      add\n      swap1\n      0x20\n      add\n      dup1\n      dup4\n      gt\n      tag_79\n      jumpi\n      dup3\n      swap1\n      sub\n      0x1f\n      and\n      dup3\n      add\n      swap2\n    tag_77:\n      pop\n      pop\n      pop\n      pop\n      pop\n      swap1\n      pop\n      dup3\n      jump\t// out\n        /* \"simpleStorage.sol\":2204:2301  function addToMap(string memory name,uint256 _marks) public {... */\n    tag_44:\n        /* \"simpleStorage.sol\":2288:2294  _marks */\n      dup1\n        /* \"simpleStorage.sol\":2274:2279  marks */\n      0x07\n        /* \"simpleStorage.sol\":2280:2284  name */\n      dup4\n        /* \"simpleStorage.sol\":2274:2285  marks[name] */\n      mload(0x40)\n      tag_81\n      swap2\n      swap1\n      tag_82\n      jump\t// in\n    tag_81:\n      swap1\n      dup2\n      mstore\n      0x20\n      add\n      mload(0x40)\n      dup1\n      swap2\n      sub\n      swap1\n      keccak256\n        /* \"simpleStorage.sol\":2274:2294  marks[name] = _marks */\n      dup2\n      swap1\n      sstore\n      pop\n        /* \"simpleStorage.sol\":2204:2301  function addToMap(string memory name,uint256 _marks) public {... */\n      pop\n      pop\n      jump\t// out\n        /* \"simpleStorage.sol\":802:973  function specialFunction(uint256 _inputValue) public {... */\n    tag_47:\n        /* \"simpleStorage.sol\":873:884  _inputValue */\n      dup1\n        /* \"simpleStorage.sol\":865:870  value */\n      0x00\n        /* \"simpleStorage.sol\":865:884  value = _inputValue */\n      dup2\n      swap1\n      sstore\n      pop\n        /* \"simpleStorage.sol\":894:908  purefunction() */\n      tag_84\n        /* \"simpleStorage.sol\":894:906  purefunction */\n      tag_35\n        /* \"simpleStorage.sol\":894:908  purefunction() */\n      jump\t// in\n    tag_84:\n      pop\n        /* \"simpleStorage.sol\":802:973  function specialFunction(uint256 _inputValue) public {... */\n      pop\n      jump\t// out\n        /* \"simpleStorage.sol\":412:493  function getVal() public view returns(uint256){... */\n    tag_49:\n        /* \"simpleStorage.sol\":450:457  uint256 */\n      0x00\n        /* \"simpleStorage.sol\":475:486  secretValue */\n      sload(0x01)\n        /* \"simpleStorage.sol\":468:486  return secretValue */\n      swap1\n      pop\n        /* \"simpleStorage.sol\":412:493  function getVal() public view returns(uint256){... */\n      swap1\n      jump\t// out\n        /* \"simpleStorage.sol\":2133:2172  mapping(string => uint256) public marks */\n    tag_54:\n      0x07\n      dup2\n      dup1\n      mload\n      0x20\n      dup2\n      add\n      dup3\n      add\n      dup1\n      mload\n      dup5\n      dup3\n      mstore\n      0x20\n      dup4\n      add\n      0x20\n      dup6\n      add\n      keccak256\n      dup2\n      dup4\n      mstore\n      dup1\n      swap6\n      pop\n      pop\n      pop\n      pop\n      pop\n      pop\n      0x00\n      swap2\n      pop\n      swap1\n      pop\n      sload\n      dup2\n      jump\t// out\n        /* \"#utility.yul\":7:84   */\n    tag_86:\n        /* \"#utility.yul\":44:51   */\n      0x00\n        /* \"#utility.yul\":73:78   */\n      dup2\n        /* \"#utility.yul\":62:78   */\n      swap1\n      pop\n        /* \"#utility.yul\":7:84   */\n      swap2\n      swap1\n      pop\n      jump\t// out\n        /* \"#utility.yul\":90:208   */\n    tag_87:\n        /* \"#utility.yul\":177:201   */\n      tag_128\n        /* \"#utility.yul\":195:200   */\n      dup2\n        /* \"#utility.yul\":177:201   */\n      tag_86\n      jump\t// in\n    tag_128:\n        /* \"#utility.yul\":172:175   */\n      dup3\n        /* \"#utility.yul\":165:202   */\n      mstore\n        /* \"#utility.yul\":90:208   */\n      pop\n      pop\n      jump\t// out\n        /* \"#utility.yul\":214:313   */\n    tag_88:\n        /* \"#utility.yul\":266:272   */\n      0x00\n        /* \"#utility.yul\":300:305   */\n      dup2\n        /* \"#utility.yul\":294:306   */\n      mload\n        /* \"#utility.yul\":284:306   */\n      swap1\n      pop\n        /* \"#utility.yul\":214:313   */\n      swap2\n      swap1\n      pop\n      jump\t// out\n        /* \"#utility.yul\":319:488   */\n    tag_89:\n        /* \"#utility.yul\":403:414   */\n      0x00\n        /* \"#utility.yul\":437:443   */\n      dup3\n        /* \"#utility.yul\":432:435   */\n      dup3\n        /* \"#utility.yul\":425:444   */\n      mstore\n        /* \"#utility.yul\":477:481   */\n      0x20\n        /* \"#utility.yul\":472:475   */\n      dup3\n        /* \"#utility.yul\":468:482   */\n      add\n        /* \"#utility.yul\":453:482   */\n      swap1\n      pop\n        /* \"#utility.yul\":319:488   */\n      swap3\n      swap2\n      pop\n      pop\n      jump\t// out\n        /* \"#utility.yul\":494:633   */\n    tag_90:\n        /* \"#utility.yul\":583:589   */\n      dup3\n        /* \"#utility.yul\":578:581   */\n      dup2\n        /* \"#utility.yul\":573:576   */\n      dup4\n        /* \"#utility.yul\":567:590   */\n      mcopy\n        /* \"#utility.yul\":624:625   */\n      0x00\n        /* \"#utility.yul\":615:621   */\n      dup4\n        /* \"#utility.yul\":610:613   */\n      dup4\n        /* \"#utility.yul\":606:622   */\n      add\n        /* \"#utility.yul\":599:626   */\n      mstore\n        /* \"#utility.yul\":494:633   */\n      pop\n      pop\n      pop\n      jump\t// out\n        /* \"#utility.yul\":639:741   */\n    tag_91:\n        /* \"#utility.yul\":680:686   */\n      0x00\n        /* \"#utility.yul\":731:733   */\n      0x1f\n        /* \"#utility.yul\":727:734   */\n      not\n        /* \"#utility.yul\":722:724   */\n      0x1f\n        /* \"#utility.yul\":715:720   */\n      dup4\n        /* \"#utility.yul\":711:725   */\n      add\n        /* \"#utility.yul\":707:735   */\n      and\n        /* \"#utility.yul\":697:735   */\n      swap1\n      pop\n        /* \"#utility.yul\":639:741   */\n      swap2\n      swap1\n      pop\n      jump\t// out\n        /* \"#utility.yul\":747:1124   */\n    tag_92:\n        /* \"#utility.yul\":835:838   */\n      0x00\n        /* \"#utility.yul\":863:902   */\n      tag_134\n        /* \"#utility.yul\":896:901   */\n      dup3\n        /* \"#utility.yul\":863:902   */\n      tag_88\n      jump\t// in\n    tag_134:\n        /* \"#utility.yul\":918:989   */\n      tag_135\n        /* \"#utility.yul\":982:988   */\n      dup2\n        /* \"#utility.yul\":977:980   */\n      dup6\n        /* \"#utility.yul\":918:989   */\n      tag_89\n      jump\t// in\n    tag_135:\n        /* \"#utility.yul\":911:989   */\n      swap4\n      pop\n        /* \"#utility.yul\":998:1063   */\n      tag_136\n        /* \"#utility.yul\":1056:1062   */\n      dup2\n        /* \"#utility.yul\":1051:1054   */\n      dup6\n        /* \"#utility.yul\":1044:1048   */\n      0x20\n        /* \"#utility.yul\":1037:1042   */\n      dup7\n        /* \"#utility.yul\":1033:1049   */\n      add\n        /* \"#utility.yul\":998:1063   */\n      tag_90\n      jump\t// in\n    tag_136:\n        /* \"#utility.yul\":1088:1117   */\n      tag_137\n        /* \"#utility.yul\":1110:1116   */\n      dup2\n        /* \"#utility.yul\":1088:1117   */\n      tag_91\n      jump\t// in\n    tag_137:\n        /* \"#utility.yul\":1083:1086   */\n      dup5\n        /* \"#utility.yul\":1079:1118   */\n      add\n        /* \"#utility.yul\":1072:1118   */\n      swap2\n      pop\n        /* \"#utility.yul\":839:1124   */\n      pop\n        /* \"#utility.yul\":747:1124   */\n      swap3\n      swap2\n      pop\n      pop\n      jump\t// out\n        /* \"#utility.yul\":1130:1553   */\n    tag_18:\n        /* \"#utility.yul\":1271:1275   */\n      0x00\n        /* \"#utility.yul\":1309:1311   */\n      0x40\n        /* \"#utility.yul\":1298:1307   */\n      dup3\n        /* \"#utility.yul\":1294:1312   */\n      add\n        /* \"#utility.yul\":1286:1312   */\n      swap1\n      pop\n        /* \"#utility.yul\":1322:1393   */\n      tag_139\n        /* \"#utility.yul\":1390:1391   */\n      0x00\n        /* \"#utility.yul\":1379:1388   */\n      dup4\n        /* \"#utility.yul\":1375:1392   */\n      add\n        /* \"#utility.yul\":1366:1372   */\n      dup6\n        /* \"#utility.yul\":1322:1393   */\n      tag_87\n      jump\t// in\n    tag_139:\n        /* \"#utility.yul\":1440:1449   */\n      dup2\n        /* \"#utility.yul\":1434:1438   */\n      dup2\n        /* \"#utility.yul\":1430:1450   */\n      sub\n        /* \"#utility.yul\":1425:1427   */\n      0x20\n        /* \"#utility.yul\":1414:1423   */\n      dup4\n        /* \"#utility.yul\":1410:1428   */\n      add\n        /* \"#utility.yul\":1403:1451   */\n      mstore\n        /* \"#utility.yul\":1468:1546   */\n      tag_140\n        /* \"#utility.yul\":1541:1545   */\n      dup2\n        /* \"#utility.yul\":1532:1538   */\n      dup5\n        /* \"#utility.yul\":1468:1546   */\n      tag_92\n      jump\t// in\n    tag_140:\n        /* \"#utility.yul\":1460:1546   */\n      swap1\n      pop\n        /* \"#utility.yul\":1130:1553   */\n      swap4\n      swap3\n      pop\n      pop\n      pop\n      jump\t// out\n        /* \"#utility.yul\":1559:1634   */\n    tag_93:\n        /* \"#utility.yul\":1592:1598   */\n      0x00\n        /* \"#utility.yul\":1625:1627   */\n      0x40\n        /* \"#utility.yul\":1619:1628   */\n      mload\n        /* \"#utility.yul\":1609:1628   */\n      swap1\n      pop\n        /* \"#utility.yul\":1559:1634   */\n      swap1\n      jump\t// out\n        /* \"#utility.yul\":1640:1757   */\n    tag_94:\n        /* \"#utility.yul\":1749:1750   */\n      0x00\n        /* \"#utility.yul\":1746:1747   */\n      dup1\n        /* \"#utility.yul\":1739:1751   */\n      revert\n        /* \"#utility.yul\":1763:1880   */\n    tag_95:\n        /* \"#utility.yul\":1872:1873   */\n      0x00\n        /* \"#utility.yul\":1869:1870   */\n      dup1\n        /* \"#utility.yul\":1862:1874   */\n      revert\n        /* \"#utility.yul\":1886:2008   */\n    tag_96:\n        /* \"#utility.yul\":1959:1983   */\n      tag_145\n        /* \"#utility.yul\":1977:1982   */\n      dup2\n        /* \"#utility.yul\":1959:1983   */\n      tag_86\n      jump\t// in\n    tag_145:\n        /* \"#utility.yul\":1952:1957   */\n      dup2\n        /* \"#utility.yul\":1949:1984   */\n      eq\n        /* \"#utility.yul\":1939:2002   */\n      tag_146\n      jumpi\n        /* \"#utility.yul\":1998:1999   */\n      0x00\n        /* \"#utility.yul\":1995:1996   */\n      dup1\n        /* \"#utility.yul\":1988:2000   */\n      revert\n        /* \"#utility.yul\":1939:2002   */\n    tag_146:\n        /* \"#utility.yul\":1886:2008   */\n      pop\n      jump\t// out\n        /* \"#utility.yul\":2014:2153   */\n    tag_97:\n        /* \"#utility.yul\":2060:2065   */\n      0x00\n        /* \"#utility.yul\":2098:2104   */\n      dup2\n        /* \"#utility.yul\":2085:2105   */\n      calldataload\n        /* \"#utility.yul\":2076:2105   */\n      swap1\n      pop\n        /* \"#utility.yul\":2114:2147   */\n      tag_148\n        /* \"#utility.yul\":2141:2146   */\n      dup2\n        /* \"#utility.yul\":2114:2147   */\n      tag_96\n      jump\t// in\n    tag_148:\n        /* \"#utility.yul\":2014:2153   */\n      swap3\n      swap2\n      pop\n      pop\n      jump\t// out\n        /* \"#utility.yul\":2159:2488   */\n    tag_24:\n        /* \"#utility.yul\":2218:2224   */\n      0x00\n        /* \"#utility.yul\":2267:2269   */\n      0x20\n        /* \"#utility.yul\":2255:2264   */\n      dup3\n        /* \"#utility.yul\":2246:2253   */\n      dup5\n        /* \"#utility.yul\":2242:2265   */\n      sub\n        /* \"#utility.yul\":2238:2270   */\n      slt\n        /* \"#utility.yul\":2235:2354   */\n      iszero\n      tag_150\n      jumpi\n        /* \"#utility.yul\":2273:2352   */\n      tag_151\n      tag_94\n      jump\t// in\n    tag_151:\n        /* \"#utility.yul\":2235:2354   */\n    tag_150:\n        /* \"#utility.yul\":2393:2394   */\n      0x00\n        /* \"#utility.yul\":2418:2471   */\n      tag_152\n        /* \"#utility.yul\":2463:2470   */\n      dup5\n        /* \"#utility.yul\":2454:2460   */\n      dup3\n        /* \"#utility.yul\":2443:2452   */\n      dup6\n        /* \"#utility.yul\":2439:2461   */\n      add\n        /* \"#utility.yul\":2418:2471   */\n      tag_97\n      jump\t// in\n    tag_152:\n        /* \"#utility.yul\":2408:2471   */\n      swap2\n      pop\n        /* \"#utility.yul\":2364:2481   */\n      pop\n        /* \"#utility.yul\":2159:2488   */\n      swap3\n      swap2\n      pop\n      pop\n      jump\t// out\n        /* \"#utility.yul\":2494:2716   */\n    tag_29:\n        /* \"#utility.yul\":2587:2591   */\n      0x00\n        /* \"#utility.yul\":2625:2627   */\n      0x20\n        /* \"#utility.yul\":2614:2623   */\n      dup3\n        /* \"#utility.yul\":2610:2628   */\n      add\n        /* \"#utility.yul\":2602:2628   */\n      swap1\n      pop\n        /* \"#utility.yul\":2638:2709   */\n      tag_154\n        /* \"#utility.yul\":2706:2707   */\n      0x00\n        /* \"#utility.yul\":2695:2704   */\n      dup4\n        /* \"#utility.yul\":2691:2708   */\n      add\n        /* \"#utility.yul\":2682:2688   */\n      dup5\n        /* \"#utility.yul\":2638:2709   */\n      tag_87\n      jump\t// in\n    tag_154:\n        /* \"#utility.yul\":2494:2716   */\n      swap3\n      swap2\n      pop\n      pop\n      jump\t// out\n        /* \"#utility.yul\":2722:2839   */\n    tag_98:\n        /* \"#utility.yul\":2831:2832   */\n      0x00\n        /* \"#utility.yul\":2828:2829   */\n      dup1\n        /* \"#utility.yul\":2821:2833   */\n      revert\n        /* \"#utility.yul\":2845:2962   */\n    tag_99:\n        /* \"#utility.yul\":2954:2955   */\n      0x00\n        /* \"#utility.yul\":2951:2952   */\n      dup1\n        /* \"#utility.yul\":2944:2956   */\n      revert\n        /* \"#utility.yul\":2968:3148   */\n    tag_100:\n        /* \"#utility.yul\":3016:3093   */\n      0x4e487b7100000000000000000000000000000000000000000000000000000000\n        /* \"#utility.yul\":3013:3014   */\n      0x00\n        /* \"#utility.yul\":3006:3094   */\n      mstore\n        /* \"#utility.yul\":3113:3117   */\n      0x41\n        /* \"#utility.yul\":3110:3111   */\n      0x04\n        /* \"#utility.yul\":3103:3118   */\n      mstore\n        /* \"#utility.yul\":3137:3141   */\n      0x24\n        /* \"#utility.yul\":3134:3135   */\n      0x00\n        /* \"#utility.yul\":3127:3142   */\n      revert\n        /* \"#utility.yul\":3154:3435   */\n    tag_101:\n        /* \"#utility.yul\":3237:3264   */\n      tag_159\n        /* \"#utility.yul\":3259:3263   */\n      dup3\n        /* \"#utility.yul\":3237:3264   */\n      tag_91\n      jump\t// in\n    tag_159:\n        /* \"#utility.yul\":3229:3235   */\n      dup2\n        /* \"#utility.yul\":3225:3265   */\n      add\n        /* \"#utility.yul\":3367:3373   */\n      dup2\n        /* \"#utility.yul\":3355:3365   */\n      dup2\n        /* \"#utility.yul\":3352:3374   */\n      lt\n        /* \"#utility.yul\":3331:3349   */\n      0xffffffffffffffff\n        /* \"#utility.yul\":3319:3329   */\n      dup3\n        /* \"#utility.yul\":3316:3350   */\n      gt\n        /* \"#utility.yul\":3313:3375   */\n      or\n        /* \"#utility.yul\":3310:3398   */\n      iszero\n      tag_160\n      jumpi\n        /* \"#utility.yul\":3378:3396   */\n      tag_161\n      tag_100\n      jump\t// in\n    tag_161:\n        /* \"#utility.yul\":3310:3398   */\n    tag_160:\n        /* \"#utility.yul\":3418:3428   */\n      dup1\n        /* \"#utility.yul\":3414:3416   */\n      0x40\n        /* \"#utility.yul\":3407:3429   */\n      mstore\n        /* \"#utility.yul\":3197:3435   */\n      pop\n        /* \"#utility.yul\":3154:3435   */\n      pop\n      pop\n      jump\t// out\n        /* \"#utility.yul\":3441:3570   */\n    tag_102:\n        /* \"#utility.yul\":3475:3481   */\n      0x00\n        /* \"#utility.yul\":3502:3522   */\n      tag_163\n      tag_93\n      jump\t// in\n    tag_163:\n        /* \"#utility.yul\":3492:3522   */\n      swap1\n      pop\n        /* \"#utility.yul\":3531:3564   */\n      tag_164\n        /* \"#utility.yul\":3559:3563   */\n      dup3\n        /* \"#utility.yul\":3551:3557   */\n      dup3\n        /* \"#utility.yul\":3531:3564   */\n      tag_101\n      jump\t// in\n    tag_164:\n        /* \"#utility.yul\":3441:3570   */\n      swap2\n      swap1\n      pop\n      jump\t// out\n        /* \"#utility.yul\":3576:3884   */\n    tag_103:\n        /* \"#utility.yul\":3638:3642   */\n      0x00\n        /* \"#utility.yul\":3728:3746   */\n      0xffffffffffffffff\n        /* \"#utility.yul\":3720:3726   */\n      dup3\n        /* \"#utility.yul\":3717:3747   */\n      gt\n        /* \"#utility.yul\":3714:3770   */\n      iszero\n      tag_166\n      jumpi\n        /* \"#utility.yul\":3750:3768   */\n      tag_167\n      tag_100\n      jump\t// in\n    tag_167:\n        /* \"#utility.yul\":3714:3770   */\n    tag_166:\n        /* \"#utility.yul\":3788:3817   */\n      tag_168\n        /* \"#utility.yul\":3810:3816   */\n      dup3\n        /* \"#utility.yul\":3788:3817   */\n      tag_91\n      jump\t// in\n    tag_168:\n        /* \"#utility.yul\":3780:3817   */\n      swap1\n      pop\n        /* \"#utility.yul\":3872:3876   */\n      0x20\n        /* \"#utility.yul\":3866:3870   */\n      dup2\n        /* \"#utility.yul\":3862:3877   */\n      add\n        /* \"#utility.yul\":3854:3877   */\n      swap1\n      pop\n        /* \"#utility.yul\":3576:3884   */\n      swap2\n      swap1\n      pop\n      jump\t// out\n        /* \"#utility.yul\":3890:4038   */\n    tag_104:\n        /* \"#utility.yul\":3988:3994   */\n      dup3\n        /* \"#utility.yul\":3983:3986   */\n      dup2\n        /* \"#utility.yul\":3978:3981   */\n      dup4\n        /* \"#utility.yul\":3965:3995   */\n      calldatacopy\n        /* \"#utility.yul\":4029:4030   */\n      0x00\n        /* \"#utility.yul\":4020:4026   */\n      dup4\n        /* \"#utility.yul\":4015:4018   */\n      dup4\n        /* \"#utility.yul\":4011:4027   */\n      add\n        /* \"#utility.yul\":4004:4031   */\n      mstore\n        /* \"#utility.yul\":3890:4038   */\n      pop\n      pop\n      pop\n      jump\t// out\n        /* \"#utility.yul\":4044:4469   */\n    tag_105:\n        /* \"#utility.yul\":4122:4127   */\n      0x00\n        /* \"#utility.yul\":4147:4213   */\n      tag_171\n        /* \"#utility.yul\":4163:4212   */\n      tag_172\n        /* \"#utility.yul\":4205:4211   */\n      dup5\n        /* \"#utility.yul\":4163:4212   */\n      tag_103\n      jump\t// in\n    tag_172:\n        /* \"#utility.yul\":4147:4213   */\n      tag_102\n      jump\t// in\n    tag_171:\n        /* \"#utility.yul\":4138:4213   */\n      swap1\n      pop\n        /* \"#utility.yul\":4236:4242   */\n      dup3\n        /* \"#utility.yul\":4229:4234   */\n      dup2\n        /* \"#utility.yul\":4222:4243   */\n      mstore\n        /* \"#utility.yul\":4274:4278   */\n      0x20\n        /* \"#utility.yul\":4267:4272   */\n      dup2\n        /* \"#utility.yul\":4263:4279   */\n      add\n        /* \"#utility.yul\":4312:4315   */\n      dup5\n        /* \"#utility.yul\":4303:4309   */\n      dup5\n        /* \"#utility.yul\":4298:4301   */\n      dup5\n        /* \"#utility.yul\":4294:4310   */\n      add\n        /* \"#utility.yul\":4291:4316   */\n      gt\n        /* \"#utility.yul\":4288:4400   */\n      iszero\n      tag_173\n      jumpi\n        /* \"#utility.yul\":4319:4398   */\n      tag_174\n      tag_99\n      jump\t// in\n    tag_174:\n        /* \"#utility.yul\":4288:4400   */\n    tag_173:\n        /* \"#utility.yul\":4409:4463   */\n      tag_175\n        /* \"#utility.yul\":4456:4462   */\n      dup5\n        /* \"#utility.yul\":4451:4454   */\n      dup3\n        /* \"#utility.yul\":4446:4449   */\n      dup6\n        /* \"#utility.yul\":4409:4463   */\n      tag_104\n      jump\t// in\n    tag_175:\n        /* \"#utility.yul\":4128:4469   */\n      pop\n        /* \"#utility.yul\":4044:4469   */\n      swap4\n      swap3\n      pop\n      pop\n      pop\n      jump\t// out\n        /* \"#utility.yul\":4489:4829   */\n    tag_106:\n        /* \"#utility.yul\":4545:4550   */\n      0x00\n        /* \"#utility.yul\":4594:4597   */\n      dup3\n        /* \"#utility.yul\":4587:4591   */\n      0x1f\n        /* \"#utility.yul\":4579:4585   */\n      dup4\n        /* \"#utility.yul\":4575:4592   */\n      add\n        /* \"#utility.yul\":4571:4598   */\n      slt\n        /* \"#utility.yul\":4561:4683   */\n      tag_177\n      jumpi\n        /* \"#utility.yul\":4602:4681   */\n      tag_178\n      tag_98\n      jump\t// in\n    tag_178:\n        /* \"#utility.yul\":4561:4683   */\n    tag_177:\n        /* \"#utility.yul\":4719:4725   */\n      dup2\n        /* \"#utility.yul\":4706:4726   */\n      calldataload\n        /* \"#utility.yul\":4744:4823   */\n      tag_179\n        /* \"#utility.yul\":4819:4822   */\n      dup5\n        /* \"#utility.yul\":4811:4817   */\n      dup3\n        /* \"#utility.yul\":4804:4808   */\n      0x20\n        /* \"#utility.yul\":4796:4802   */\n      dup7\n        /* \"#utility.yul\":4792:4809   */\n      add\n        /* \"#utility.yul\":4744:4823   */\n      tag_105\n      jump\t// in\n    tag_179:\n        /* \"#utility.yul\":4735:4823   */\n      swap2\n      pop\n        /* \"#utility.yul\":4551:4829   */\n      pop\n        /* \"#utility.yul\":4489:4829   */\n      swap3\n      swap2\n      pop\n      pop\n      jump\t// out\n        /* \"#utility.yul\":4835:5489   */\n    tag_32:\n        /* \"#utility.yul\":4913:4919   */\n      0x00\n        /* \"#utility.yul\":4921:4927   */\n      dup1\n        /* \"#utility.yul\":4970:4972   */\n      0x40\n        /* \"#utility.yul\":4958:4967   */\n      dup4\n        /* \"#utility.yul\":4949:4956   */\n      dup6\n        /* \"#utility.yul\":4945:4968   */\n      sub\n        /* \"#utility.yul\":4941:4973   */\n      slt\n        /* \"#utility.yul\":4938:5057   */\n      iszero\n      tag_181\n      jumpi\n        /* \"#utility.yul\":4976:5055   */\n      tag_182\n      tag_94\n      jump\t// in\n    tag_182:\n        /* \"#utility.yul\":4938:5057   */\n    tag_181:\n        /* \"#utility.yul\":5096:5097   */\n      0x00\n        /* \"#utility.yul\":5121:5174   */\n      tag_183\n        /* \"#utility.yul\":5166:5173   */\n      dup6\n        /* \"#utility.yul\":5157:5163   */\n      dup3\n        /* \"#utility.yul\":5146:5155   */\n      dup7\n        /* \"#utility.yul\":5142:5164   */\n      add\n        /* \"#utility.yul\":5121:5174   */\n      tag_97\n      jump\t// in\n    tag_183:\n        /* \"#utility.yul\":5111:5174   */\n      swap3\n      pop\n        /* \"#utility.yul\":5067:5184   */\n      pop\n        /* \"#utility.yul\":5251:5253   */\n      0x20\n        /* \"#utility.yul\":5240:5249   */\n      dup4\n        /* \"#utility.yul\":5236:5254   */\n      add\n        /* \"#utility.yul\":5223:5255   */\n      calldataload\n        /* \"#utility.yul\":5282:5300   */\n      0xffffffffffffffff\n        /* \"#utility.yul\":5274:5280   */\n      dup2\n        /* \"#utility.yul\":5271:5301   */\n      gt\n        /* \"#utility.yul\":5268:5385   */\n      iszero\n      tag_184\n      jumpi\n        /* \"#utility.yul\":5304:5383   */\n      tag_185\n      tag_95\n      jump\t// in\n    tag_185:\n        /* \"#utility.yul\":5268:5385   */\n    tag_184:\n        /* \"#utility.yul\":5409:5472   */\n      tag_186\n        /* \"#utility.yul\":5464:5471   */\n      dup6\n        /* \"#utility.yul\":5455:5461   */\n      dup3\n        /* \"#utility.yul\":5444:5453   */\n      dup7\n        /* \"#utility.yul\":5440:5462   */\n      add\n        /* \"#utility.yul\":5409:5472   */\n      tag_106\n      jump\t// in\n    tag_186:\n        /* \"#utility.yul\":5399:5472   */\n      swap2\n      pop\n        /* \"#utility.yul\":5194:5482   */\n      pop\n        /* \"#utility.yul\":4835:5489   */\n      swap3\n      pop\n      swap3\n      swap1\n      pop\n      jump\t// out\n        /* \"#utility.yul\":5495:6149   */\n    tag_43:\n        /* \"#utility.yul\":5573:5579   */\n      0x00\n        /* \"#utility.yul\":5581:5587   */\n      dup1\n        /* \"#utility.yul\":5630:5632   */\n      0x40\n        /* \"#utility.yul\":5618:5627   */\n      dup4\n        /* \"#utility.yul\":5609:5616   */\n      dup6\n        /* \"#utility.yul\":5605:5628   */\n      sub\n        /* \"#utility.yul\":5601:5633   */\n      slt\n        /* \"#utility.yul\":5598:5717   */\n      iszero\n      tag_188\n      jumpi\n        /* \"#utility.yul\":5636:5715   */\n      tag_189\n      tag_94\n      jump\t// in\n    tag_189:\n        /* \"#utility.yul\":5598:5717   */\n    tag_188:\n        /* \"#utility.yul\":5784:5785   */\n      0x00\n        /* \"#utility.yul\":5773:5782   */\n      dup4\n        /* \"#utility.yul\":5769:5786   */\n      add\n        /* \"#utility.yul\":5756:5787   */\n      calldataload\n        /* \"#utility.yul\":5814:5832   */\n      0xffffffffffffffff\n        /* \"#utility.yul\":5806:5812   */\n      dup2\n        /* \"#utility.yul\":5803:5833   */\n      gt\n        /* \"#utility.yul\":5800:5917   */\n      iszero\n      tag_190\n      jumpi\n        /* \"#utility.yul\":5836:5915   */\n      tag_191\n      tag_95\n      jump\t// in\n    tag_191:\n        /* \"#utility.yul\":5800:5917   */\n    tag_190:\n        /* \"#utility.yul\":5941:6004   */\n      tag_192\n        /* \"#utility.yul\":5996:6003   */\n      dup6\n        /* \"#utility.yul\":5987:5993   */\n      dup3\n        /* \"#utility.yul\":5976:5985   */\n      dup7\n        /* \"#utility.yul\":5972:5994   */\n      add\n        /* \"#utility.yul\":5941:6004   */\n      tag_106\n      jump\t// in\n    tag_192:\n        /* \"#utility.yul\":5931:6004   */\n      swap3\n      pop\n        /* \"#utility.yul\":5727:6014   */\n      pop\n        /* \"#utility.yul\":6053:6055   */\n      0x20\n        /* \"#utility.yul\":6079:6132   */\n      tag_193\n        /* \"#utility.yul\":6124:6131   */\n      dup6\n        /* \"#utility.yul\":6115:6121   */\n      dup3\n        /* \"#utility.yul\":6104:6113   */\n      dup7\n        /* \"#utility.yul\":6100:6122   */\n      add\n        /* \"#utility.yul\":6079:6132   */\n      tag_97\n      jump\t// in\n    tag_193:\n        /* \"#utility.yul\":6069:6132   */\n      swap2\n      pop\n        /* \"#utility.yul\":6024:6142   */\n      pop\n        /* \"#utility.yul\":5495:6149   */\n      swap3\n      pop\n      swap3\n      swap1\n      pop\n      jump\t// out\n        /* \"#utility.yul\":6155:6664   */\n    tag_53:\n        /* \"#utility.yul\":6224:6230   */\n      0x00\n        /* \"#utility.yul\":6273:6275   */\n      0x20\n        /* \"#utility.yul\":6261:6270   */\n      dup3\n        /* \"#utility.yul\":6252:6259   */\n      dup5\n        /* \"#utility.yul\":6248:6271   */\n      sub\n        /* \"#utility.yul\":6244:6276   */\n      slt\n        /* \"#utility.yul\":6241:6360   */\n      iszero\n      tag_195\n      jumpi\n        /* \"#utility.yul\":6279:6358   */\n      tag_196\n      tag_94\n      jump\t// in\n    tag_196:\n        /* \"#utility.yul\":6241:6360   */\n    tag_195:\n        /* \"#utility.yul\":6427:6428   */\n      0x00\n        /* \"#utility.yul\":6416:6425   */\n      dup3\n        /* \"#utility.yul\":6412:6429   */\n      add\n        /* \"#utility.yul\":6399:6430   */\n      calldataload\n        /* \"#utility.yul\":6457:6475   */\n      0xffffffffffffffff\n        /* \"#utility.yul\":6449:6455   */\n      dup2\n        /* \"#utility.yul\":6446:6476   */\n      gt\n        /* \"#utility.yul\":6443:6560   */\n      iszero\n      tag_197\n      jumpi\n        /* \"#utility.yul\":6479:6558   */\n      tag_198\n      tag_95\n      jump\t// in\n    tag_198:\n        /* \"#utility.yul\":6443:6560   */\n    tag_197:\n        /* \"#utility.yul\":6584:6647   */\n      tag_199\n        /* \"#utility.yul\":6639:6646   */\n      dup5\n        /* \"#utility.yul\":6630:6636   */\n      dup3\n        /* \"#utility.yul\":6619:6628   */\n      dup6\n        /* \"#utility.yul\":6615:6637   */\n      add\n        /* \"#utility.yul\":6584:6647   */\n      tag_106\n      jump\t// in\n    tag_199:\n        /* \"#utility.yul\":6574:6647   */\n      swap2\n      pop\n        /* \"#utility.yul\":6370:6657   */\n      pop\n        /* \"#utility.yul\":6155:6664   */\n      swap3\n      swap2\n      pop\n      pop\n      jump\t// out\n        /* \"#utility.yul\":6670:6850   */\n    tag_107:\n        /* \"#utility.yul\":6718:6795   */\n      0x4e487b7100000000000000000000000000000000000000000000000000000000\n        /* \"#utility.yul\":6715:6716   */\n      0x00\n        /* \"#utility.yul\":6708:6796   */\n      mstore\n        /* \"#utility.yul\":6815:6819   */\n      0x22\n        /* \"#utility.yul\":6812:6813   */\n      0x04\n        /* \"#utility.yul\":6805:6820   */\n      mstore\n        /* \"#utility.yul\":6839:6843   */\n      0x24\n        /* \"#utility.yul\":6836:6837   */\n      0x00\n        /* \"#utility.yul\":6829:6844   */\n      revert\n        /* \"#utility.yul\":6856:7176   */\n    tag_57:\n        /* \"#utility.yul\":6900:6906   */\n      0x00\n        /* \"#utility.yul\":6937:6938   */\n      0x02\n        /* \"#utility.yul\":6931:6935   */\n      dup3\n        /* \"#utility.yul\":6927:6939   */\n      div\n        /* \"#utility.yul\":6917:6939   */\n      swap1\n      pop\n        /* \"#utility.yul\":6984:6985   */\n      0x01\n        /* \"#utility.yul\":6978:6982   */\n      dup3\n        /* \"#utility.yul\":6974:6986   */\n      and\n        /* \"#utility.yul\":7005:7023   */\n      dup1\n        /* \"#utility.yul\":6995:7076   */\n      tag_202\n      jumpi\n        /* \"#utility.yul\":7061:7065   */\n      0x7f\n        /* \"#utility.yul\":7053:7059   */\n      dup3\n        /* \"#utility.yul\":7049:7066   */\n      and\n        /* \"#utility.yul\":7039:7066   */\n      swap2\n      pop\n        /* \"#utility.yul\":6995:7076   */\n    tag_202:\n        /* \"#utility.yul\":7123:7125   */\n      0x20\n        /* \"#utility.yul\":7115:7121   */\n      dup3\n        /* \"#utility.yul\":7112:7126   */\n      lt\n        /* \"#utility.yul\":7092:7110   */\n      dup2\n        /* \"#utility.yul\":7089:7127   */\n      sub\n        /* \"#utility.yul\":7086:7170   */\n      tag_203\n      jumpi\n        /* \"#utility.yul\":7142:7160   */\n      tag_204\n      tag_107\n      jump\t// in\n    tag_204:\n        /* \"#utility.yul\":7086:7170   */\n    tag_203:\n        /* \"#utility.yul\":6907:7176   */\n      pop\n        /* \"#utility.yul\":6856:7176   */\n      swap2\n      swap1\n      pop\n      jump\t// out\n        /* \"#utility.yul\":7182:7323   */\n    tag_108:\n        /* \"#utility.yul\":7231:7235   */\n      0x00\n        /* \"#utility.yul\":7254:7257   */\n      dup2\n        /* \"#utility.yul\":7246:7257   */\n      swap1\n      pop\n        /* \"#utility.yul\":7277:7280   */\n      dup2\n        /* \"#utility.yul\":7274:7275   */\n      0x00\n        /* \"#utility.yul\":7267:7281   */\n      mstore\n        /* \"#utility.yul\":7311:7315   */\n      0x20\n        /* \"#utility.yul\":7308:7309   */\n      0x00\n        /* \"#utility.yul\":7298:7316   */\n      keccak256\n        /* \"#utility.yul\":7290:7316   */\n      swap1\n      pop\n        /* \"#utility.yul\":7182:7323   */\n      swap2\n      swap1\n      pop\n      jump\t// out\n        /* \"#utility.yul\":7329:7422   */\n    tag_109:\n        /* \"#utility.yul\":7366:7372   */\n      0x00\n        /* \"#utility.yul\":7413:7415   */\n      0x20\n        /* \"#utility.yul\":7408:7410   */\n      0x1f\n        /* \"#utility.yul\":7401:7406   */\n      dup4\n        /* \"#utility.yul\":7397:7411   */\n      add\n        /* \"#utility.yul\":7393:7416   */\n      div\n        /* \"#utility.yul\":7383:7416   */\n      swap1\n      pop\n        /* \"#utility.yul\":7329:7422   */\n      swap2\n      swap1\n      pop\n      jump\t// out\n        /* \"#utility.yul\":7428:7535   */\n    tag_110:\n        /* \"#utility.yul\":7472:7480   */\n      0x00\n        /* \"#utility.yul\":7522:7527   */\n      dup3\n        /* \"#utility.yul\":7516:7520   */\n      dup3\n        /* \"#utility.yul\":7512:7528   */\n      shl\n        /* \"#utility.yul\":7491:7528   */\n      swap1\n      pop\n        /* \"#utility.yul\":7428:7535   */\n      swap3\n      swap2\n      pop\n      pop\n      jump\t// out\n        /* \"#utility.yul\":7541:7934   */\n    tag_111:\n        /* \"#utility.yul\":7610:7616   */\n      0x00\n        /* \"#utility.yul\":7660:7661   */\n      0x08\n        /* \"#utility.yul\":7648:7658   */\n      dup4\n        /* \"#utility.yul\":7644:7662   */\n      mul\n        /* \"#utility.yul\":7683:7780   */\n      tag_209\n        /* \"#utility.yul\":7713:7779   */\n      0xffffffffffffffffffffffffffffffffffffffffffffffffffffffffffffffff\n        /* \"#utility.yul\":7702:7711   */\n      dup3\n        /* \"#utility.yul\":7683:7780   */\n      tag_110\n      jump\t// in\n    tag_209:\n        /* \"#utility.yul\":7801:7840   */\n      tag_210\n        /* \"#utility.yul\":7831:7839   */\n      dup7\n        /* \"#utility.yul\":7820:7829   */\n      dup4\n        /* \"#utility.yul\":7801:7840   */\n      tag_110\n      jump\t// in\n    tag_210:\n        /* \"#utility.yul\":7789:7840   */\n      swap6\n      pop\n        /* \"#utility.yul\":7873:7877   */\n      dup1\n        /* \"#utility.yul\":7869:7878   */\n      not\n        /* \"#utility.yul\":7862:7867   */\n      dup5\n        /* \"#utility.yul\":7858:7879   */\n      and\n        /* \"#utility.yul\":7849:7879   */\n      swap4\n      pop\n        /* \"#utility.yul\":7922:7926   */\n      dup1\n        /* \"#utility.yul\":7912:7920   */\n      dup7\n        /* \"#utility.yul\":7908:7927   */\n      and\n        /* \"#utility.yul\":7901:7906   */\n      dup5\n        /* \"#utility.yul\":7898:7928   */\n      or\n        /* \"#utility.yul\":7888:7928   */\n      swap3\n      pop\n        /* \"#utility.yul\":7617:7934   */\n      pop\n      pop\n        /* \"#utility.yul\":7541:7934   */\n      swap4\n      swap3\n      pop\n      pop\n      pop\n      jump\t// out\n        /* \"#utility.yul\":7940:8000   */\n    tag_112:\n        /* \"#utility.yul\":7968:7971   */\n      0x00\n        /* \"#utility.yul\":7989:7994   */\n      dup2\n        /* \"#utility.yul\":7982:7994   */\n      swap1\n      pop\n        /* \"#utility.yul\":7940:8000   */\n      swap2\n      swap1\n      pop\n      jump\t// out\n        /* \"#utility.yul\":8006:8148   */\n    tag_113:\n        /* \"#utility.yul\":8056:8065   */\n      0x00\n        /* \"#utility.yul\":8089:8142   */\n      tag_213\n        /* \"#utility.yul\":8107:8141   */\n      tag_214\n        /* \"#utility.yul\":8116:8140   */\n      tag_215\n        /* \"#utility.yul\":8134:8139   */\n      dup5\n        /* \"#utility.yul\":8116:8140   */\n      tag_86\n      jump\t// in\n    tag_215:\n        /* \"#utility.yul\":8107:8141   */\n      tag_112\n      jump\t// in\n    tag_214:\n        /* \"#utility.yul\":8089:8142   */\n      tag_86\n      jump\t// in\n    tag_213:\n        /* \"#utility.yul\":8076:8142   */\n      swap1\n      pop\n        /* \"#utility.yul\":8006:8148   */\n      swap2\n      swap1\n      pop\n      jump\t// out\n        /* \"#utility.yul\":8154:8229   */\n    tag_114:\n        /* \"#utility.yul\":8197:8200   */\n      0x00\n        /* \"#utility.yul\":8218:8223   */\n      dup2\n        /* \"#utility.yul\":8211:8223   */\n      swap1\n      pop\n        /* \"#utility.yul\":8154:8229   */\n      swap2\n      swap1\n      pop\n      jump\t// out\n        /* \"#utility.yul\":8235:8504   */\n    tag_115:\n        /* \"#utility.yul\":8345:8384   */\n      tag_218\n        /* \"#utility.yul\":8376:8383   */\n      dup4\n        /* \"#utility.yul\":8345:8384   */\n      tag_113\n      jump\t// in\n    tag_218:\n        /* \"#utility.yul\":8406:8497   */\n      tag_219\n        /* \"#utility.yul\":8455:8496   */\n      tag_220\n        /* \"#utility.yul\":8479:8495   */\n      dup3\n        /* \"#utility.yul\":8455:8496   */\n      tag_114\n      jump\t// in\n    tag_220:\n        /* \"#utility.yul\":8447:8453   */\n      dup5\n        /* \"#utility.yul\":8440:8444   */\n      dup5\n        /* \"#utility.yul\":8434:8445   */\n      sload\n        /* \"#utility.yul\":8406:8497   */\n      tag_111\n      jump\t// in\n    tag_219:\n        /* \"#utility.yul\":8400:8404   */\n      dup3\n        /* \"#utility.yul\":8393:8498   */\n      sstore\n        /* \"#utility.yul\":8311:8504   */\n      pop\n        /* \"#utility.yul\":8235:8504   */\n      pop\n      pop\n      pop\n      jump\t// out\n        /* \"#utility.yul\":8510:8583   */\n    tag_116:\n        /* \"#utility.yul\":8555:8558   */\n      0x00\n        /* \"#utility.yul\":8510:8583   */\n      swap1\n      jump\t// out\n        /* \"#utility.yul\":8589:8778   */\n    tag_117:\n        /* \"#utility.yul\":8666:8698   */\n      tag_223\n      tag_116\n      jump\t// in\n    tag_223:\n        /* \"#utility.yul\":8707:8772   */\n      tag_224\n        /* \"#utility.yul\":8765:8771   */\n      dup2\n        /* \"#utility.yul\":8757:8763   */\n      dup5\n        /* \"#utility.yul\":8751:8755   */\n      dup5\n        /* \"#utility.yul\":8707:8772   */\n      tag_115\n      jump\t// in\n    tag_224:\n        /* \"#utility.yul\":8642:8778   */\n      pop\n        /* \"#utility.yul\":8589:8778   */\n      pop\n      pop\n      jump\t// out\n        /* \"#utility.yul\":8784:8970   */\n    tag_118:\n        /* \"#utility.yul\":8844:8964   */\n    tag_226:\n        /* \"#utility.yul\":8861:8864   */\n      dup2\n        /* \"#utility.yul\":8854:8859   */\n      dup2\n        /* \"#utility.yul\":8851:8865   */\n      lt\n        /* \"#utility.yul\":8844:8964   */\n      iszero\n      tag_228\n      jumpi\n        /* \"#utility.yul\":8915:8954   */\n      tag_229\n        /* \"#utility.yul\":8952:8953   */\n      0x00\n        /* \"#utility.yul\":8945:8950   */\n      dup3\n        /* \"#utility.yul\":8915:8954   */\n      tag_117\n      jump\t// in\n    tag_229:\n        /* \"#utility.yul\":8888:8889   */\n      0x01\n        /* \"#utility.yul\":8881:8886   */\n      dup2\n        /* \"#utility.yul\":8877:8890   */\n      add\n        /* \"#utility.yul\":8868:8890   */\n      swap1\n      pop\n        /* \"#utility.yul\":8844:8964   */\n      jump(tag_226)\n    tag_228:\n        /* \"#utility.yul\":8784:8970   */\n      pop\n      pop\n      jump\t// out\n        /* \"#utility.yul\":8976:9519   */\n    tag_119:\n        /* \"#utility.yul\":9077:9079   */\n      0x1f\n        /* \"#utility.yul\":9072:9075   */\n      dup3\n        /* \"#utility.yul\":9069:9080   */\n      gt\n        /* \"#utility.yul\":9066:9512   */\n      iszero\n      tag_231\n      jumpi\n        /* \"#utility.yul\":9111:9149   */\n      tag_232\n        /* \"#utility.yul\":9143:9148   */\n      dup2\n        /* \"#utility.yul\":9111:9149   */\n      tag_108\n      jump\t// in\n    tag_232:\n        /* \"#utility.yul\":9195:9224   */\n      tag_233\n        /* \"#utility.yul\":9213:9223   */\n      dup5\n        /* \"#utility.yul\":9195:9224   */\n      tag_109\n      jump\t// in\n    tag_233:\n        /* \"#utility.yul\":9185:9193   */\n      dup2\n        /* \"#utility.yul\":9181:9225   */\n      add\n        /* \"#utility.yul\":9378:9380   */\n      0x20\n        /* \"#utility.yul\":9366:9376   */\n      dup6\n        /* \"#utility.yul\":9363:9381   */\n      lt\n        /* \"#utility.yul\":9360:9409   */\n      iszero\n      tag_234\n      jumpi\n        /* \"#utility.yul\":9399:9407   */\n      dup2\n        /* \"#utility.yul\":9384:9407   */\n      swap1\n      pop\n        /* \"#utility.yul\":9360:9409   */\n    tag_234:\n        /* \"#utility.yul\":9422:9502   */\n      tag_235\n        /* \"#utility.yul\":9478:9500   */\n      tag_236\n        /* \"#utility.yul\":9496:9499   */\n      dup6\n        /* \"#utility.yul\":9478:9500   */\n      tag_109\n      jump\t// in\n    tag_236:\n        /* \"#utility.yul\":9468:9476   */\n      dup4\n        /* \"#utility.yul\":9464:9501   */\n      add\n        /* \"#utility.yul\":9451:9462   */\n      dup3\n        /* \"#utility.yul\":9422:9502   */\n      tag_118\n      jump\t// in\n    tag_235:\n        /* \"#utility.yul\":9081:9512   */\n      pop\n      pop\n        /* \"#utility.yul\":9066:9512   */\n    tag_231:\n        /* \"#utility.yul\":8976:9519   */\n      pop\n      pop\n      pop\n      jump\t// out\n        /* \"#utility.yul\":9525:9642   */\n    tag_120:\n        /* \"#utility.yul\":9579:9587   */\n      0x00\n        /* \"#utility.yul\":9629:9634   */\n      dup3\n        /* \"#utility.yul\":9623:9627   */\n      dup3\n        /* \"#utility.yul\":9619:9635   */\n      shr\n        /* \"#utility.yul\":9598:9635   */\n      swap1\n      pop\n        /* \"#utility.yul\":9525:9642   */\n      swap3\n      swap2\n      pop\n      pop\n      jump\t// out\n        /* \"#utility.yul\":9648:9817   */\n    tag_121:\n        /* \"#utility.yul\":9692:9698   */\n      0x00\n        /* \"#utility.yul\":9725:9776   */\n      tag_239\n        /* \"#utility.yul\":9773:9774   */\n      0x00\n        /* \"#utility.yul\":9769:9775   */\n      not\n        /* \"#utility.yul\":9761:9766   */\n      dup5\n        /* \"#utility.yul\":9758:9759   */\n      0x08\n        /* \"#utility.yul\":9754:9767   */\n      mul\n        /* \"#utility.yul\":9725:9776   */\n      tag_120\n      jump\t// in\n    tag_239:\n        /* \"#utility.yul\":9721:9777   */\n      not\n        /* \"#utility.yul\":9806:9810   */\n      dup1\n        /* \"#utility.yul\":9800:9804   */\n      dup4\n        /* \"#utility.yul\":9796:9811   */\n      and\n        /* \"#utility.yul\":9786:9811   */\n      swap2\n      pop\n        /* \"#utility.yul\":9699:9817   */\n      pop\n        /* \"#utility.yul\":9648:9817   */\n      swap3\n      swap2\n      pop\n      pop\n      jump\t// out\n        /* \"#utility.yul\":9822:10117   */\n    tag_122:\n        /* \"#utility.yul\":9898:9902   */\n      0x00\n        /* \"#utility.yul\":10044:10073   */\n      tag_241\n        /* \"#utility.yul\":10069:10072   */\n      dup4\n        /* \"#utility.yul\":10063:10067   */\n      dup4\n        /* \"#utility.yul\":10044:10073   */\n      tag_121\n      jump\t// in\n    tag_241:\n        /* \"#utility.yul\":10036:10073   */\n      swap2\n      pop\n        /* \"#utility.yul\":10106:10109   */\n      dup3\n        /* \"#utility.yul\":10103:10104   */\n      0x02\n        /* \"#utility.yul\":10099:10110   */\n      mul\n        /* \"#utility.yul\":10093:10097   */\n      dup3\n        /* \"#utility.yul\":10090:10111   */\n      or\n        /* \"#utility.yul\":10082:10111   */\n      swap1\n      pop\n        /* \"#utility.yul\":9822:10117   */\n      swap3\n      swap2\n      pop\n      pop\n      jump\t// out\n        /* \"#utility.yul\":10122:11517   */\n    tag_71:\n        /* \"#utility.yul\":10239:10276   */\n      tag_243\n        /* \"#utility.yul\":10272:10275   */\n      dup3\n        /* \"#utility.yul\":10239:10276   */\n      tag_88\n      jump\t// in\n    tag_243:\n        /* \"#utility.yul\":10341:10359   */\n      0xffffffffffffffff\n        /* \"#utility.yul\":10333:10339   */\n      dup2\n        /* \"#utility.yul\":10330:10360   */\n      gt\n        /* \"#utility.yul\":10327:10383   */\n      iszero\n      tag_244\n      jumpi\n        /* \"#utility.yul\":10363:10381   */\n      tag_245\n      tag_100\n      jump\t// in\n    tag_245:\n        /* \"#utility.yul\":10327:10383   */\n    tag_244:\n        /* \"#utility.yul\":10407:10445   */\n      tag_246\n        /* \"#utility.yul\":10439:10443   */\n      dup3\n        /* \"#utility.yul\":10433:10444   */\n      sload\n        /* \"#utility.yul\":10407:10445   */\n      tag_57\n      jump\t// in\n    tag_246:\n        /* \"#utility.yul\":10492:10559   */\n      tag_247\n        /* \"#utility.yul\":10552:10558   */\n      dup3\n        /* \"#utility.yul\":10544:10550   */\n      dup3\n        /* \"#utility.yul\":10538:10542   */\n      dup6\n        /* \"#utility.yul\":10492:10559   */\n      tag_119\n      jump\t// in\n    tag_247:\n        /* \"#utility.yul\":10586:10587   */\n      0x00\n        /* \"#utility.yul\":10610:10614   */\n      0x20\n        /* \"#utility.yul\":10597:10614   */\n      swap1\n      pop\n        /* \"#utility.yul\":10642:10644   */\n      0x1f\n        /* \"#utility.yul\":10634:10640   */\n      dup4\n        /* \"#utility.yul\":10631:10645   */\n      gt\n        /* \"#utility.yul\":10659:10660   */\n      0x01\n        /* \"#utility.yul\":10654:11272   */\n      dup2\n      eq\n      tag_249\n      jumpi\n        /* \"#utility.yul\":11316:11317   */\n      0x00\n        /* \"#utility.yul\":11333:11339   */\n      dup5\n        /* \"#utility.yul\":11330:11407   */\n      iszero\n      tag_250\n      jumpi\n        /* \"#utility.yul\":11382:11391   */\n      dup3\n        /* \"#utility.yul\":11377:11380   */\n      dup8\n        /* \"#utility.yul\":11373:11392   */\n      add\n        /* \"#utility.yul\":11367:11393   */\n      mload\n        /* \"#utility.yul\":11358:11393   */\n      swap1\n      pop\n        /* \"#utility.yul\":11330:11407   */\n    tag_250:\n        /* \"#utility.yul\":11433:11500   */\n      tag_251\n        /* \"#utility.yul\":11493:11499   */\n      dup6\n        /* \"#utility.yul\":11486:11491   */\n      dup3\n        /* \"#utility.yul\":11433:11500   */\n      tag_122\n      jump\t// in\n    tag_251:\n        /* \"#utility.yul\":11427:11431   */\n      dup7\n        /* \"#utility.yul\":11420:11501   */\n      sstore\n        /* \"#utility.yul\":11289:11511   */\n      pop\n        /* \"#utility.yul\":10624:11511   */\n      jump(tag_248)\n        /* \"#utility.yul\":10654:11272   */\n    tag_249:\n        /* \"#utility.yul\":10706:10710   */\n      0x1f\n        /* \"#utility.yul\":10702:10711   */\n      not\n        /* \"#utility.yul\":10694:10700   */\n      dup5\n        /* \"#utility.yul\":10690:10712   */\n      and\n        /* \"#utility.yul\":10740:10777   */\n      tag_252\n        /* \"#utility.yul\":10772:10776   */\n      dup7\n        /* \"#utility.yul\":10740:10777   */\n      tag_108\n      jump\t// in\n    tag_252:\n        /* \"#utility.yul\":10799:10800   */\n      0x00\n        /* \"#utility.yul\":10813:11021   */\n    tag_253:\n        /* \"#utility.yul\":10827:10834   */\n      dup3\n        /* \"#utility.yul\":10824:10825   */\n      dup2\n        /* \"#utility.yul\":10821:10835   */\n      lt\n        /* \"#utility.yul\":10813:11021   */\n      iszero\n      tag_255\n      jumpi\n        /* \"#utility.yul\":10906:10915   */\n      dup5\n        /* \"#utility.yul\":10901:10904   */\n      dup10\n        /* \"#utility.yul\":10897:10916   */\n      add\n        /* \"#utility.yul\":10891:10917   */\n      mload\n        /* \"#utility.yul\":10883:10889   */\n      dup3\n        /* \"#utility.yul\":10876:10918   */\n      sstore\n        /* \"#utility.yul\":10957:10958   */\n      0x01\n        /* \"#utility.yul\":10949:10955   */\n      dup3\n        /* \"#utility.yul\":10945:10959   */\n      add\n        /* \"#utility.yul\":10935:10959   */\n      swap2\n      pop\n        /* \"#utility.yul\":11004:11006   */\n      0x20\n        /* \"#utility.yul\":10993:11002   */\n      dup6\n        /* \"#utility.yul\":10989:11007   */\n      add\n        /* \"#utility.yul\":10976:11007   */\n      swap5\n      pop\n        /* \"#utility.yul\":10850:10854   */\n      0x20\n        /* \"#utility.yul\":10847:10848   */\n      dup2\n        /* \"#utility.yul\":10843:10855   */\n      add\n        /* \"#utility.yul\":10838:10855   */\n      swap1\n      pop\n        /* \"#utility.yul\":10813:11021   */\n      jump(tag_253)\n    tag_255:\n        /* \"#utility.yul\":11049:11055   */\n      dup7\n        /* \"#utility.yul\":11040:11047   */\n      dup4\n        /* \"#utility.yul\":11037:11056   */\n      lt\n        /* \"#utility.yul\":11034:11213   */\n      iszero\n      tag_256\n      jumpi\n        /* \"#utility.yul\":11107:11116   */\n      dup5\n        /* \"#utility.yul\":11102:11105   */\n      dup10\n        /* \"#utility.yul\":11098:11117   */\n      add\n        /* \"#utility.yul\":11092:11118   */\n      mload\n        /* \"#utility.yul\":11150:11198   */\n      tag_257\n        /* \"#utility.yul\":11192:11196   */\n      0x1f\n        /* \"#utility.yul\":11184:11190   */\n      dup10\n        /* \"#utility.yul\":11180:11197   */\n      and\n        /* \"#utility.yul\":11169:11178   */\n      dup3\n        /* \"#utility.yul\":11150:11198   */\n      tag_121\n      jump\t// in\n    tag_257:\n        /* \"#utility.yul\":11142:11148   */\n      dup4\n        /* \"#utility.yul\":11135:11199   */\n      sstore\n        /* \"#utility.yul\":11057:11213   */\n      pop\n        /* \"#utility.yul\":11034:11213   */\n    tag_256:\n        /* \"#utility.yul\":11259:11260   */\n      0x01\n        /* \"#utility.yul\":11255:11256   */\n      0x02\n        /* \"#utility.yul\":11247:11253   */\n      dup9\n        /* \"#utility.yul\":11243:11257   */\n      mul\n        /* \"#utility.yul\":11239:11261   */\n      add\n        /* \"#utility.yul\":11233:11237   */\n      dup9\n        /* \"#utility.yul\":11226:11262   */\n      sstore\n        /* \"#utility.yul\":10661:11272   */\n      pop\n      pop\n      pop\n        /* \"#utility.yul\":10624:11511   */\n    tag_248:\n      pop\n        /* \"#utility.yul\":10214:11517   */\n      pop\n      pop\n      pop\n        /* \"#utility.yul\":10122:11517   */\n      pop\n      pop\n      jump\t// out\n        /* \"#utility.yul\":11523:11671   */\n    tag_123:\n        /* \"#utility.yul\":11625:11636   */\n      0x00\n        /* \"#utility.yul\":11662:11665   */\n      dup2\n        /* \"#utility.yul\":11647:11665   */\n      swap1\n      pop\n        /* \"#utility.yul\":11523:11671   */\n      swap3\n      swap2\n      pop\n      pop\n      jump\t// out\n        /* \"#utility.yul\":11677:12067   */\n    tag_124:\n        /* \"#utility.yul\":11783:11786   */\n      0x00\n        /* \"#utility.yul\":11811:11850   */\n      tag_260\n        /* \"#utility.yul\":11844:11849   */\n      dup3\n        /* \"#utility.yul\":11811:11850   */\n      tag_88\n      jump\t// in\n    tag_260:\n        /* \"#utility.yul\":11866:11955   */\n      tag_261\n        /* \"#utility.yul\":11948:11954   */\n      dup2\n        /* \"#utility.yul\":11943:11946   */\n      dup6\n        /* \"#utility.yul\":11866:11955   */\n      tag_123\n      jump\t// in\n    tag_261:\n        /* \"#utility.yul\":11859:11955   */\n      swap4\n      pop\n        /* \"#utility.yul\":11964:12029   */\n      tag_262\n        /* \"#utility.yul\":12022:12028   */\n      dup2\n        /* \"#utility.yul\":12017:12020   */\n      dup6\n        /* \"#utility.yul\":12010:12014   */\n      0x20\n        /* \"#utility.yul\":12003:12008   */\n      dup7\n        /* \"#utility.yul\":11999:12015   */\n      add\n        /* \"#utility.yul\":11964:12029   */\n      tag_90\n      jump\t// in\n    tag_262:\n        /* \"#utility.yul\":12054:12060   */\n      dup1\n        /* \"#utility.yul\":12049:12052   */\n      dup5\n        /* \"#utility.yul\":12045:12061   */\n      add\n        /* \"#utility.yul\":12038:12061   */\n      swap2\n      pop\n        /* \"#utility.yul\":11787:12067   */\n      pop\n        /* \"#utility.yul\":11677:12067   */\n      swap3\n      swap2\n      pop\n      pop\n      jump\t// out\n        /* \"#utility.yul\":12073:12348   */\n    tag_82:\n        /* \"#utility.yul\":12205:12208   */\n      0x00\n        /* \"#utility.yul\":12227:12322   */\n      tag_264\n        /* \"#utility.yul\":12318:12321   */\n      dup3\n        /* \"#utility.yul\":12309:12315   */\n      dup5\n        /* \"#utility.yul\":12227:12322   */\n      tag_124\n      jump\t// in\n    tag_264:\n        /* \"#utility.yul\":12220:12322   */\n      swap2\n      pop\n        /* \"#utility.yul\":12339:12342   */\n      dup2\n        /* \"#utility.yul\":12332:12342   */\n      swap1\n      pop\n        /* \"#utility.yul\":12073:12348   */\n      swap3\n      swap2\n      pop\n      pop\n      jump\t// out\n\n    auxdata: 0xa2646970667358221220e6419ecaf0073a77feb05cb74db8a180ac9c05a9d67badf83af788a9f8ac4b6c64736f6c634300081a0033\n}\n",
				"bytecode": {
					"linkReferences": {},
					"object": "6080604052603860015560405180604001604052805f81526020016040518060400160405280600581526020017f526f68697400000000000000000000000000000000000000000000000000000081525081525060025f820151815f01556020820151816001019081610072919061032d565b5050506040518060400160405280600481526020016040518060400160405280600681526020017f44656570616b000000000000000000000000000000000000000000000000000081525081525060045f820151815f015560208201518160010190816100df919061032d565b5050503480156100ed575f80fd5b506103fc565b5f81519050919050565b7f4e487b71000000000000000000000000000000000000000000000000000000005f52604160045260245ffd5b7f4e487b71000000000000000000000000000000000000000000000000000000005f52602260045260245ffd5b5f600282049050600182168061016e57607f821691505b6020821081036101815761018061012a565b5b50919050565b5f819050815f5260205f209050919050565b5f6020601f8301049050919050565b5f82821b905092915050565b5f600883026101e37fffffffffffffffffffffffffffffffffffffffffffffffffffffffffffffffff826101a8565b6101ed86836101a8565b95508019841693508086168417925050509392505050565b5f819050919050565b5f819050919050565b5f61023161022c61022784610205565b61020e565b610205565b9050919050565b5f819050919050565b61024a83610217565b61025e61025682610238565b8484546101b4565b825550505050565b5f90565b610272610266565b61027d818484610241565b505050565b5b818110156102a0576102955f8261026a565b600181019050610283565b5050565b601f8211156102e5576102b681610187565b6102bf84610199565b810160208510156102ce578190505b6102e26102da85610199565b830182610282565b50505b505050565b5f82821c905092915050565b5f6103055f19846008026102ea565b1980831691505092915050565b5f61031d83836102f6565b9150826002028217905092915050565b610336826100f3565b67ffffffffffffffff81111561034f5761034e6100fd565b5b6103598254610157565b6103648282856102a4565b5f60209050601f831160018114610395575f8415610383578287015190505b61038d8582610312565b8655506103f4565b601f1984166103a386610187565b5f5b828110156103ca578489015182556001820191506020850194506020810190506103a5565b868310156103e757848901516103e3601f8916826102f6565b8355505b6001600288020188555050505b505050505050565b610b88806104095f395ff3fe608060405234801561000f575f80fd5b50600436106100a7575f3560e01c80634c8599441161006f5780634c8599441461013f57806380c9419e1461015d578063c6b8d7f91461018e578063cdd6c60c146101aa578063e1cb0e52146101c6578063eb05886b146101e4576100a7565b8063113abe1f146100ab578063361a80e6146100ca5780633d4197f0146100e95780633fa4f2451461010557806342ecc52a14610123575b5f80fd5b6100b3610214565b6040516100c1929190610565565b60405180910390f35b6100d26102ab565b6040516100e0929190610565565b60405180910390f35b61010360048036038101906100fe91906105ce565b610342565b005b61010d61034b565b60405161011a91906105f9565b60405180910390f35b61013d6004803603810190610138919061073e565b610350565b005b6101476103b1565b60405161015491906105f9565b60405180910390f35b610177600480360381019061017291906105ce565b6103b9565b604051610185929190610565565b60405180910390f35b6101a860048036038101906101a39190610798565b61046e565b005b6101c460048036038101906101bf91906105ce565b610495565b005b6101ce6104a7565b6040516101db91906105f9565b60405180910390f35b6101fe60048036038101906101f991906107f2565b6104b0565b60405161020b91906105f9565b60405180910390f35b6004805f01549080600101805461022a90610866565b80601f016020809104026020016040519081016040528092919081815260200182805461025690610866565b80156102a15780601f10610278576101008083540402835291602001916102a1565b820191905f5260205f20905b81548152906001019060200180831161028457829003601f168201915b5050505050905082565b6002805f0154908060010180546102c190610866565b80601f01602080910402602001604051908101604052809291908181526020018280546102ed90610866565b80156103385780601f1061030f57610100808354040283529160200191610338565b820191905f5260205f20905b81548152906001019060200180831161031b57829003601f168201915b5050505050905082565b805f8190555050565b5f5481565b6006604051806040016040528084815260200183815250908060018154018082558091505060019003905f5260205f2090600202015f909190919091505f820151815f015560208201518160010190816103aa9190610a33565b5050505050565b5f6007905090565b600681815481106103c8575f80fd5b905f5260205f2090600202015f91509050805f0154908060010180546103ed90610866565b80601f016020809104026020016040519081016040528092919081815260200182805461041990610866565b80156104645780601f1061043b57610100808354040283529160200191610464565b820191905f5260205f20905b81548152906001019060200180831161044757829003601f168201915b5050505050905082565b8060078360405161047f9190610b3c565b9081526020016040518091039020819055505050565b805f819055506104a36103b1565b5050565b5f600154905090565b6007818051602081018201805184825260208301602085012081835280955050505050505f915090505481565b5f819050919050565b6104ef816104dd565b82525050565b5f81519050919050565b5f82825260208201905092915050565b8281835e5f83830152505050565b5f601f19601f8301169050919050565b5f610537826104f5565b61054181856104ff565b935061055181856020860161050f565b61055a8161051d565b840191505092915050565b5f6040820190506105785f8301856104e6565b818103602083015261058a818461052d565b90509392505050565b5f604051905090565b5f80fd5b5f80fd5b6105ad816104dd565b81146105b7575f80fd5b50565b5f813590506105c8816105a4565b92915050565b5f602082840312156105e3576105e261059c565b5b5f6105f0848285016105ba565b91505092915050565b5f60208201905061060c5f8301846104e6565b92915050565b5f80fd5b5f80fd5b7f4e487b71000000000000000000000000000000000000000000000000000000005f52604160045260245ffd5b6106508261051d565b810181811067ffffffffffffffff8211171561066f5761066e61061a565b5b80604052505050565b5f610681610593565b905061068d8282610647565b919050565b5f67ffffffffffffffff8211156106ac576106ab61061a565b5b6106b58261051d565b9050602081019050919050565b828183375f83830152505050565b5f6106e26106dd84610692565b610678565b9050828152602081018484840111156106fe576106fd610616565b5b6107098482856106c2565b509392505050565b5f82601f83011261072557610724610612565b5b81356107358482602086016106d0565b91505092915050565b5f80604083850312156107545761075361059c565b5b5f610761858286016105ba565b925050602083013567ffffffffffffffff811115610782576107816105a0565b5b61078e85828601610711565b9150509250929050565b5f80604083850312156107ae576107ad61059c565b5b5f83013567ffffffffffffffff8111156107cb576107ca6105a0565b5b6107d785828601610711565b92505060206107e8858286016105ba565b9150509250929050565b5f602082840312156108075761080661059c565b5b5f82013567ffffffffffffffff811115610824576108236105a0565b5b61083084828501610711565b91505092915050565b7f4e487b71000000000000000000000000000000000000000000000000000000005f52602260045260245ffd5b5f600282049050600182168061087d57607f821691505b6020821081036108905761088f610839565b5b50919050565b5f819050815f5260205f209050919050565b5f6020601f8301049050919050565b5f82821b905092915050565b5f600883026108f27fffffffffffffffffffffffffffffffffffffffffffffffffffffffffffffffff826108b7565b6108fc86836108b7565b95508019841693508086168417925050509392505050565b5f819050919050565b5f61093761093261092d846104dd565b610914565b6104dd565b9050919050565b5f819050919050565b6109508361091d565b61096461095c8261093e565b8484546108c3565b825550505050565b5f90565b61097861096c565b610983818484610947565b505050565b5b818110156109a65761099b5f82610970565b600181019050610989565b5050565b601f8211156109eb576109bc81610896565b6109c5846108a8565b810160208510156109d4578190505b6109e86109e0856108a8565b830182610988565b50505b505050565b5f82821c905092915050565b5f610a0b5f19846008026109f0565b1980831691505092915050565b5f610a2383836109fc565b9150826002028217905092915050565b610a3c826104f5565b67ffffffffffffffff811115610a5557610a5461061a565b5b610a5f8254610866565b610a6a8282856109aa565b5f60209050601f831160018114610a9b575f8415610a89578287015190505b610a938582610a18565b865550610afa565b601f198416610aa986610896565b5f5b82811015610ad057848901518255600182019150602085019450602081019050610aab565b86831015610aed5784890151610ae9601f8916826109fc565b8355505b6001600288020188555050505b505050505050565b5f81905092915050565b5f610b16826104f5565b610b208185610b02565b9350610b3081856020860161050f565b80840191505092915050565b5f610b478284610b0c565b91508190509291505056fea2646970667358221220e6419ecaf0073a77feb05cb74db8a180ac9c05a9d67badf83af788a9f8ac4b6c64736f6c634300081a0033",
					"opcodes": "PUSH1 0x80 PUSH1 0x40 MSTORE PUSH1 0x38 PUSH1 0x1 SSTORE PUSH1 0x40 MLOAD DUP1 PUSH1 0x40 ADD PUSH1 0x40 MSTORE DUP1 PUSH0 DUP2 MSTORE PUSH1 0x20 ADD PUSH1 0x40 MLOAD DUP1 PUSH1 0x40 ADD PUSH1 0x40 MSTORE DUP1 PUSH1 0x5 DUP2 MSTORE PUSH1 0x20 ADD PUSH32 0x526F686974000000000000000000000000000000000000000000000000000000 DUP2 MSTORE POP DUP2 MSTORE POP PUSH1 0x2 PUSH0 DUP3 ADD MLOAD DUP2 PUSH0 ADD SSTORE PUSH1 0x20 DUP3 ADD MLOAD DUP2 PUSH1 0x1 ADD SWAP1 DUP2 PUSH2 0x72 SWAP2 SWAP1 PUSH2 0x32D JUMP JUMPDEST POP POP POP PUSH1 0x40 MLOAD DUP1 PUSH1 0x40 ADD PUSH1 0x40 MSTORE DUP1 PUSH1 0x4 DUP2 MSTORE PUSH1 0x20 ADD PUSH1 0x40 MLOAD DUP1 PUSH1 0x40 ADD PUSH1 0x40 MSTORE DUP1 PUSH1 0x6 DUP2 MSTORE PUSH1 0x20 ADD PUSH32 0x44656570616B0000000000000000000000000000000000000000000000000000 DUP2 MSTORE POP DUP2 MSTORE POP PUSH1 0x4 PUSH0 DUP3 ADD MLOAD DUP2 PUSH0 ADD SSTORE PUSH1 0x20 DUP3 ADD MLOAD DUP2 PUSH1 0x1 ADD SWAP1 DUP2 PUSH2 0xDF SWAP2 SWAP1 PUSH2 0x32D JUMP JUMPDEST POP POP POP CALLVALUE DUP1 ISZERO PUSH2 0xED JUMPI PUSH0 DUP1 REVERT JUMPDEST POP PUSH2 0x3FC JUMP JUMPDEST PUSH0 DUP2 MLOAD SWAP1 POP SWAP2 SWAP1 POP JUMP JUMPDEST PUSH32 0x4E487B7100000000000000000000000000000000000000000000000000000000 PUSH0 MSTORE PUSH1 0x41 PUSH1 0x4 MSTORE PUSH1 0x24 PUSH0 REVERT JUMPDEST PUSH32 0x4E487B7100000000000000000000000000000000000000000000000000000000 PUSH0 MSTORE PUSH1 0x22 PUSH1 0x4 MSTORE PUSH1 0x24 PUSH0 REVERT JUMPDEST PUSH0 PUSH1 0x2 DUP3 DIV SWAP1 POP PUSH1 0x1 DUP3 AND DUP1 PUSH2 0x16E JUMPI PUSH1 0x7F DUP3 AND SWAP2 POP JUMPDEST PUSH1 0x20 DUP3 LT DUP2 SUB PUSH2 0x181 JUMPI PUSH2 0x180 PUSH2 0x12A JUMP JUMPDEST JUMPDEST POP SWAP2 SWAP1 POP JUMP JUMPDEST PUSH0 DUP2 SWAP1 POP DUP2 PUSH0 MSTORE PUSH1 0x20 PUSH0 KECCAK256 SWAP1 POP SWAP2 SWAP1 POP JUMP JUMPDEST PUSH0 PUSH1 0x20 PUSH1 0x1F DUP4 ADD DIV SWAP1 POP SWAP2 SWAP1 POP JUMP JUMPDEST PUSH0 DUP3 DUP3 SHL SWAP1 POP SWAP3 SWAP2 POP POP JUMP JUMPDEST PUSH0 PUSH1 0x8 DUP4 MUL PUSH2 0x1E3 PUSH32 0xFFFFFFFFFFFFFFFFFFFFFFFFFFFFFFFFFFFFFFFFFFFFFFFFFFFFFFFFFFFFFFFF DUP3 PUSH2 0x1A8 JUMP JUMPDEST PUSH2 0x1ED DUP7 DUP4 PUSH2 0x1A8 JUMP JUMPDEST SWAP6 POP DUP1 NOT DUP5 AND SWAP4 POP DUP1 DUP7 AND DUP5 OR SWAP3 POP POP POP SWAP4 SWAP3 POP POP POP JUMP JUMPDEST PUSH0 DUP2 SWAP1 POP SWAP2 SWAP1 POP JUMP JUMPDEST PUSH0 DUP2 SWAP1 POP SWAP2 SWAP1 POP JUMP JUMPDEST PUSH0 PUSH2 0x231 PUSH2 0x22C PUSH2 0x227 DUP5 PUSH2 0x205 JUMP JUMPDEST PUSH2 0x20E JUMP JUMPDEST PUSH2 0x205 JUMP JUMPDEST SWAP1 POP SWAP2 SWAP1 POP JUMP JUMPDEST PUSH0 DUP2 SWAP1 POP SWAP2 SWAP1 POP JUMP JUMPDEST PUSH2 0x24A DUP4 PUSH2 0x217 JUMP JUMPDEST PUSH2 0x25E PUSH2 0x256 DUP3 PUSH2 0x238 JUMP JUMPDEST DUP5 DUP5 SLOAD PUSH2 0x1B4 JUMP JUMPDEST DUP3 SSTORE POP POP POP POP JUMP JUMPDEST PUSH0 SWAP1 JUMP JUMPDEST PUSH2 0x272 PUSH2 0x266 JUMP JUMPDEST PUSH2 0x27D DUP2 DUP5 DUP5 PUSH2 0x241 JUMP JUMPDEST POP POP POP JUMP JUMPDEST JUMPDEST DUP2 DUP2 LT ISZERO PUSH2 0x2A0 JUMPI PUSH2 0x295 PUSH0 DUP3 PUSH2 0x26A JUMP JUMPDEST PUSH1 0x1 DUP2 ADD SWAP1 POP PUSH2 0x283 JUMP JUMPDEST POP POP JUMP JUMPDEST PUSH1 0x1F DUP3 GT ISZERO PUSH2 0x2E5 JUMPI PUSH2 0x2B6 DUP2 PUSH2 0x187 JUMP JUMPDEST PUSH2 0x2BF DUP5 PUSH2 0x199 JUMP JUMPDEST DUP2 ADD PUSH1 0x20 DUP6 LT ISZERO PUSH2 0x2CE JUMPI DUP2 SWAP1 POP JUMPDEST PUSH2 0x2E2 PUSH2 0x2DA DUP6 PUSH2 0x199 JUMP JUMPDEST DUP4 ADD DUP3 PUSH2 0x282 JUMP JUMPDEST POP POP JUMPDEST POP POP POP JUMP JUMPDEST PUSH0 DUP3 DUP3 SHR SWAP1 POP SWAP3 SWAP2 POP POP JUMP JUMPDEST PUSH0 PUSH2 0x305 PUSH0 NOT DUP5 PUSH1 0x8 MUL PUSH2 0x2EA JUMP JUMPDEST NOT DUP1 DUP4 AND SWAP2 POP POP SWAP3 SWAP2 POP POP JUMP JUMPDEST PUSH0 PUSH2 0x31D DUP4 DUP4 PUSH2 0x2F6 JUMP JUMPDEST SWAP2 POP DUP3 PUSH1 0x2 MUL DUP3 OR SWAP1 POP SWAP3 SWAP2 POP POP JUMP JUMPDEST PUSH2 0x336 DUP3 PUSH2 0xF3 JUMP JUMPDEST PUSH8 0xFFFFFFFFFFFFFFFF DUP2 GT ISZERO PUSH2 0x34F JUMPI PUSH2 0x34E PUSH2 0xFD JUMP JUMPDEST JUMPDEST PUSH2 0x359 DUP3 SLOAD PUSH2 0x157 JUMP JUMPDEST PUSH2 0x364 DUP3 DUP3 DUP6 PUSH2 0x2A4 JUMP JUMPDEST PUSH0 PUSH1 0x20 SWAP1 POP PUSH1 0x1F DUP4 GT PUSH1 0x1 DUP2 EQ PUSH2 0x395 JUMPI PUSH0 DUP5 ISZERO PUSH2 0x383 JUMPI DUP3 DUP8 ADD MLOAD SWAP1 POP JUMPDEST PUSH2 0x38D DUP6 DUP3 PUSH2 0x312 JUMP JUMPDEST DUP7 SSTORE POP PUSH2 0x3F4 JUMP JUMPDEST PUSH1 0x1F NOT DUP5 AND PUSH2 0x3A3 DUP7 PUSH2 0x187 JUMP JUMPDEST PUSH0 JUMPDEST DUP3 DUP2 LT ISZERO PUSH2 0x3CA JUMPI DUP5 DUP10 ADD MLOAD DUP3 SSTORE PUSH1 0x1 DUP3 ADD SWAP2 POP PUSH1 0x20 DUP6 ADD SWAP5 POP PUSH1 0x20 DUP2 ADD SWAP1 POP PUSH2 0x3A5 JUMP JUMPDEST DUP7 DUP4 LT ISZERO PUSH2 0x3E7 JUMPI DUP5 DUP10 ADD MLOAD PUSH2 0x3E3 PUSH1 0x1F DUP10 AND DUP3 PUSH2 0x2F6 JUMP JUMPDEST DUP4 SSTORE POP JUMPDEST PUSH1 0x1 PUSH1 0x2 DUP9 MUL ADD DUP9 SSTORE POP POP POP JUMPDEST POP POP POP POP POP POP JUMP JUMPDEST PUSH2 0xB88 DUP1 PUSH2 0x409 PUSH0 CODECOPY PUSH0 RETURN INVALID PUSH1 0x80 PUSH1 0x40 MSTORE CALLVALUE DUP1 ISZERO PUSH2 0xF JUMPI PUSH0 DUP1 REVERT JUMPDEST POP PUSH1 0x4 CALLDATASIZE LT PUSH2 0xA7 JUMPI PUSH0 CALLDATALOAD PUSH1 0xE0 SHR DUP1 PUSH4 0x4C859944 GT PUSH2 0x6F JUMPI DUP1 PUSH4 0x4C859944 EQ PUSH2 0x13F JUMPI DUP1 PUSH4 0x80C9419E EQ PUSH2 0x15D JUMPI DUP1 PUSH4 0xC6B8D7F9 EQ PUSH2 0x18E JUMPI DUP1 PUSH4 0xCDD6C60C EQ PUSH2 0x1AA JUMPI DUP1 PUSH4 0xE1CB0E52 EQ PUSH2 0x1C6 JUMPI DUP1 PUSH4 0xEB05886B EQ PUSH2 0x1E4 JUMPI PUSH2 0xA7 JUMP JUMPDEST DUP1 PUSH4 0x113ABE1F EQ PUSH2 0xAB JUMPI DUP1 PUSH4 0x361A80E6 EQ PUSH2 0xCA JUMPI DUP1 PUSH4 0x3D4197F0 EQ PUSH2 0xE9 JUMPI DUP1 PUSH4 0x3FA4F245 EQ PUSH2 0x105 JUMPI DUP1 PUSH4 0x42ECC52A EQ PUSH2 0x123 JUMPI JUMPDEST PUSH0 DUP1 REVERT JUMPDEST PUSH2 0xB3 PUSH2 0x214 JUMP JUMPDEST PUSH1 0x40 MLOAD PUSH2 0xC1 SWAP3 SWAP2 SWAP1 PUSH2 0x565 JUMP JUMPDEST PUSH1 0x40 MLOAD DUP1 SWAP2 SUB SWAP1 RETURN JUMPDEST PUSH2 0xD2 PUSH2 0x2AB JUMP JUMPDEST PUSH1 0x40 MLOAD PUSH2 0xE0 SWAP3 SWAP2 SWAP1 PUSH2 0x565 JUMP JUMPDEST PUSH1 0x40 MLOAD DUP1 SWAP2 SUB SWAP1 RETURN JUMPDEST PUSH2 0x103 PUSH1 0x4 DUP1 CALLDATASIZE SUB DUP2 ADD SWAP1 PUSH2 0xFE SWAP2 SWAP1 PUSH2 0x5CE JUMP JUMPDEST PUSH2 0x342 JUMP JUMPDEST STOP JUMPDEST PUSH2 0x10D PUSH2 0x34B JUMP JUMPDEST PUSH1 0x40 MLOAD PUSH2 0x11A SWAP2 SWAP1 PUSH2 0x5F9 JUMP JUMPDEST PUSH1 0x40 MLOAD DUP1 SWAP2 SUB SWAP1 RETURN JUMPDEST PUSH2 0x13D PUSH1 0x4 DUP1 CALLDATASIZE SUB DUP2 ADD SWAP1 PUSH2 0x138 SWAP2 SWAP1 PUSH2 0x73E JUMP JUMPDEST PUSH2 0x350 JUMP JUMPDEST STOP JUMPDEST PUSH2 0x147 PUSH2 0x3B1 JUMP JUMPDEST PUSH1 0x40 MLOAD PUSH2 0x154 SWAP2 SWAP1 PUSH2 0x5F9 JUMP JUMPDEST PUSH1 0x40 MLOAD DUP1 SWAP2 SUB SWAP1 RETURN JUMPDEST PUSH2 0x177 PUSH1 0x4 DUP1 CALLDATASIZE SUB DUP2 ADD SWAP1 PUSH2 0x172 SWAP2 SWAP1 PUSH2 0x5CE JUMP JUMPDEST PUSH2 0x3B9 JUMP JUMPDEST PUSH1 0x40 MLOAD PUSH2 0x185 SWAP3 SWAP2 SWAP1 PUSH2 0x565 JUMP JUMPDEST PUSH1 0x40 MLOAD DUP1 SWAP2 SUB SWAP1 RETURN JUMPDEST PUSH2 0x1A8 PUSH1 0x4 DUP1 CALLDATASIZE SUB DUP2 ADD SWAP1 PUSH2 0x1A3 SWAP2 SWAP1 PUSH2 0x798 JUMP JUMPDEST PUSH2 0x46E JUMP JUMPDEST STOP JUMPDEST PUSH2 0x1C4 PUSH1 0x4 DUP1 CALLDATASIZE SUB DUP2 ADD SWAP1 PUSH2 0x1BF SWAP2 SWAP1 PUSH2 0x5CE JUMP JUMPDEST PUSH2 0x495 JUMP JUMPDEST STOP JUMPDEST PUSH2 0x1CE PUSH2 0x4A7 JUMP JUMPDEST PUSH1 0x40 MLOAD PUSH2 0x1DB SWAP2 SWAP1 PUSH2 0x5F9 JUMP JUMPDEST PUSH1 0x40 MLOAD DUP1 SWAP2 SUB SWAP1 RETURN JUMPDEST PUSH2 0x1FE PUSH1 0x4 DUP1 CALLDATASIZE SUB DUP2 ADD SWAP1 PUSH2 0x1F9 SWAP2 SWAP1 PUSH2 0x7F2 JUMP JUMPDEST PUSH2 0x4B0 JUMP JUMPDEST PUSH1 0x40 MLOAD PUSH2 0x20B SWAP2 SWAP1 PUSH2 0x5F9 JUMP JUMPDEST PUSH1 0x40 MLOAD DUP1 SWAP2 SUB SWAP1 RETURN JUMPDEST PUSH1 0x4 DUP1 PUSH0 ADD SLOAD SWAP1 DUP1 PUSH1 0x1 ADD DUP1 SLOAD PUSH2 0x22A SWAP1 PUSH2 0x866 JUMP JUMPDEST DUP1 PUSH1 0x1F ADD PUSH1 0x20 DUP1 SWAP2 DIV MUL PUSH1 0x20 ADD PUSH1 0x40 MLOAD SWAP1 DUP2 ADD PUSH1 0x40 MSTORE DUP1 SWAP3 SWAP2 SWAP1 DUP2 DUP2 MSTORE PUSH1 0x20 ADD DUP3 DUP1 SLOAD PUSH2 0x256 SWAP1 PUSH2 0x866 JUMP JUMPDEST DUP1 ISZERO PUSH2 0x2A1 JUMPI DUP1 PUSH1 0x1F LT PUSH2 0x278 JUMPI PUSH2 0x100 DUP1 DUP4 SLOAD DIV MUL DUP4 MSTORE SWAP2 PUSH1 0x20 ADD SWAP2 PUSH2 0x2A1 JUMP JUMPDEST DUP3 ADD SWAP2 SWAP1 PUSH0 MSTORE PUSH1 0x20 PUSH0 KECCAK256 SWAP1 JUMPDEST DUP2 SLOAD DUP2 MSTORE SWAP1 PUSH1 0x1 ADD SWAP1 PUSH1 0x20 ADD DUP1 DUP4 GT PUSH2 0x284 JUMPI DUP3 SWAP1 SUB PUSH1 0x1F AND DUP3 ADD SWAP2 JUMPDEST POP POP POP POP POP SWAP1 POP DUP3 JUMP JUMPDEST PUSH1 0x2 DUP1 PUSH0 ADD SLOAD SWAP1 DUP1 PUSH1 0x1 ADD DUP1 SLOAD PUSH2 0x2C1 SWAP1 PUSH2 0x866 JUMP JUMPDEST DUP1 PUSH1 0x1F ADD PUSH1 0x20 DUP1 SWAP2 DIV MUL PUSH1 0x20 ADD PUSH1 0x40 MLOAD SWAP1 DUP2 ADD PUSH1 0x40 MSTORE DUP1 SWAP3 SWAP2 SWAP1 DUP2 DUP2 MSTORE PUSH1 0x20 ADD DUP3 DUP1 SLOAD PUSH2 0x2ED SWAP1 PUSH2 0x866 JUMP JUMPDEST DUP1 ISZERO PUSH2 0x338 JUMPI DUP1 PUSH1 0x1F LT PUSH2 0x30F JUMPI PUSH2 0x100 DUP1 DUP4 SLOAD DIV MUL DUP4 MSTORE SWAP2 PUSH1 0x20 ADD SWAP2 PUSH2 0x338 JUMP JUMPDEST DUP3 ADD SWAP2 SWAP1 PUSH0 MSTORE PUSH1 0x20 PUSH0 KECCAK256 SWAP1 JUMPDEST DUP2 SLOAD DUP2 MSTORE SWAP1 PUSH1 0x1 ADD SWAP1 PUSH1 0x20 ADD DUP1 DUP4 GT PUSH2 0x31B JUMPI DUP3 SWAP1 SUB PUSH1 0x1F AND DUP3 ADD SWAP2 JUMPDEST POP POP POP POP POP SWAP1 POP DUP3 JUMP JUMPDEST DUP1 PUSH0 DUP2 SWAP1 SSTORE POP POP JUMP JUMPDEST PUSH0 SLOAD DUP2 JUMP JUMPDEST PUSH1 0x6 PUSH1 0x40 MLOAD DUP1 PUSH1 0x40 ADD PUSH1 0x40 MSTORE DUP1 DUP5 DUP2 MSTORE PUSH1 0x20 ADD DUP4 DUP2 MSTORE POP SWAP1 DUP1 PUSH1 0x1 DUP2 SLOAD ADD DUP1 DUP3 SSTORE DUP1 SWAP2 POP POP PUSH1 0x1 SWAP1 SUB SWAP1 PUSH0 MSTORE PUSH1 0x20 PUSH0 KECCAK256 SWAP1 PUSH1 0x2 MUL ADD PUSH0 SWAP1 SWAP2 SWAP1 SWAP2 SWAP1 SWAP2 POP PUSH0 DUP3 ADD MLOAD DUP2 PUSH0 ADD SSTORE PUSH1 0x20 DUP3 ADD MLOAD DUP2 PUSH1 0x1 ADD SWAP1 DUP2 PUSH2 0x3AA SWAP2 SWAP1 PUSH2 0xA33 JUMP JUMPDEST POP POP POP POP POP JUMP JUMPDEST PUSH0 PUSH1 0x7 SWAP1 POP SWAP1 JUMP JUMPDEST PUSH1 0x6 DUP2 DUP2 SLOAD DUP2 LT PUSH2 0x3C8 JUMPI PUSH0 DUP1 REVERT JUMPDEST SWAP1 PUSH0 MSTORE PUSH1 0x20 PUSH0 KECCAK256 SWAP1 PUSH1 0x2 MUL ADD PUSH0 SWAP2 POP SWAP1 POP DUP1 PUSH0 ADD SLOAD SWAP1 DUP1 PUSH1 0x1 ADD DUP1 SLOAD PUSH2 0x3ED SWAP1 PUSH2 0x866 JUMP JUMPDEST DUP1 PUSH1 0x1F ADD PUSH1 0x20 DUP1 SWAP2 DIV MUL PUSH1 0x20 ADD PUSH1 0x40 MLOAD SWAP1 DUP2 ADD PUSH1 0x40 MSTORE DUP1 SWAP3 SWAP2 SWAP1 DUP2 DUP2 MSTORE PUSH1 0x20 ADD DUP3 DUP1 SLOAD PUSH2 0x419 SWAP1 PUSH2 0x866 JUMP JUMPDEST DUP1 ISZERO PUSH2 0x464 JUMPI DUP1 PUSH1 0x1F LT PUSH2 0x43B JUMPI PUSH2 0x100 DUP1 DUP4 SLOAD DIV MUL DUP4 MSTORE SWAP2 PUSH1 0x20 ADD SWAP2 PUSH2 0x464 JUMP JUMPDEST DUP3 ADD SWAP2 SWAP1 PUSH0 MSTORE PUSH1 0x20 PUSH0 KECCAK256 SWAP1 JUMPDEST DUP2 SLOAD DUP2 MSTORE SWAP1 PUSH1 0x1 ADD SWAP1 PUSH1 0x20 ADD DUP1 DUP4 GT PUSH2 0x447 JUMPI DUP3 SWAP1 SUB PUSH1 0x1F AND DUP3 ADD SWAP2 JUMPDEST POP POP POP POP POP SWAP1 POP DUP3 JUMP JUMPDEST DUP1 PUSH1 0x7 DUP4 PUSH1 0x40 MLOAD PUSH2 0x47F SWAP2 SWAP1 PUSH2 0xB3C JUMP JUMPDEST SWAP1 DUP2 MSTORE PUSH1 0x20 ADD PUSH1 0x40 MLOAD DUP1 SWAP2 SUB SWAP1 KECCAK256 DUP2 SWAP1 SSTORE POP POP POP JUMP JUMPDEST DUP1 PUSH0 DUP2 SWAP1 SSTORE POP PUSH2 0x4A3 PUSH2 0x3B1 JUMP JUMPDEST POP POP JUMP JUMPDEST PUSH0 PUSH1 0x1 SLOAD SWAP1 POP SWAP1 JUMP JUMPDEST PUSH1 0x7 DUP2 DUP1 MLOAD PUSH1 0x20 DUP2 ADD DUP3 ADD DUP1 MLOAD DUP5 DUP3 MSTORE PUSH1 0x20 DUP4 ADD PUSH1 0x20 DUP6 ADD KECCAK256 DUP2 DUP4 MSTORE DUP1 SWAP6 POP POP POP POP POP POP PUSH0 SWAP2 POP SWAP1 POP SLOAD DUP2 JUMP JUMPDEST PUSH0 DUP2 SWAP1 POP SWAP2 SWAP1 POP JUMP JUMPDEST PUSH2 0x4EF DUP2 PUSH2 0x4DD JUMP JUMPDEST DUP3 MSTORE POP POP JUMP JUMPDEST PUSH0 DUP2 MLOAD SWAP1 POP SWAP2 SWAP1 POP JUMP JUMPDEST PUSH0 DUP3 DUP3 MSTORE PUSH1 0x20 DUP3 ADD SWAP1 POP SWAP3 SWAP2 POP POP JUMP JUMPDEST DUP3 DUP2 DUP4 MCOPY PUSH0 DUP4 DUP4 ADD MSTORE POP POP POP JUMP JUMPDEST PUSH0 PUSH1 0x1F NOT PUSH1 0x1F DUP4 ADD AND SWAP1 POP SWAP2 SWAP1 POP JUMP JUMPDEST PUSH0 PUSH2 0x537 DUP3 PUSH2 0x4F5 JUMP JUMPDEST PUSH2 0x541 DUP2 DUP6 PUSH2 0x4FF JUMP JUMPDEST SWAP4 POP PUSH2 0x551 DUP2 DUP6 PUSH1 0x20 DUP7 ADD PUSH2 0x50F JUMP JUMPDEST PUSH2 0x55A DUP2 PUSH2 0x51D JUMP JUMPDEST DUP5 ADD SWAP2 POP POP SWAP3 SWAP2 POP POP JUMP JUMPDEST PUSH0 PUSH1 0x40 DUP3 ADD SWAP1 POP PUSH2 0x578 PUSH0 DUP4 ADD DUP6 PUSH2 0x4E6 JUMP JUMPDEST DUP2 DUP2 SUB PUSH1 0x20 DUP4 ADD MSTORE PUSH2 0x58A DUP2 DUP5 PUSH2 0x52D JUMP JUMPDEST SWAP1 POP SWAP4 SWAP3 POP POP POP JUMP JUMPDEST PUSH0 PUSH1 0x40 MLOAD SWAP1 POP SWAP1 JUMP JUMPDEST PUSH0 DUP1 REVERT JUMPDEST PUSH0 DUP1 REVERT JUMPDEST PUSH2 0x5AD DUP2 PUSH2 0x4DD JUMP JUMPDEST DUP2 EQ PUSH2 0x5B7 JUMPI PUSH0 DUP1 REVERT JUMPDEST POP JUMP JUMPDEST PUSH0 DUP2 CALLDATALOAD SWAP1 POP PUSH2 0x5C8 DUP2 PUSH2 0x5A4 JUMP JUMPDEST SWAP3 SWAP2 POP POP JUMP JUMPDEST PUSH0 PUSH1 0x20 DUP3 DUP5 SUB SLT ISZERO PUSH2 0x5E3 JUMPI PUSH2 0x5E2 PUSH2 0x59C JUMP JUMPDEST JUMPDEST PUSH0 PUSH2 0x5F0 DUP5 DUP3 DUP6 ADD PUSH2 0x5BA JUMP JUMPDEST SWAP2 POP POP SWAP3 SWAP2 POP POP JUMP JUMPDEST PUSH0 PUSH1 0x20 DUP3 ADD SWAP1 POP PUSH2 0x60C PUSH0 DUP4 ADD DUP5 PUSH2 0x4E6 JUMP JUMPDEST SWAP3 SWAP2 POP POP JUMP JUMPDEST PUSH0 DUP1 REVERT JUMPDEST PUSH0 DUP1 REVERT JUMPDEST PUSH32 0x4E487B7100000000000000000000000000000000000000000000000000000000 PUSH0 MSTORE PUSH1 0x41 PUSH1 0x4 MSTORE PUSH1 0x24 PUSH0 REVERT JUMPDEST PUSH2 0x650 DUP3 PUSH2 0x51D JUMP JUMPDEST DUP2 ADD DUP2 DUP2 LT PUSH8 0xFFFFFFFFFFFFFFFF DUP3 GT OR ISZERO PUSH2 0x66F JUMPI PUSH2 0x66E PUSH2 0x61A JUMP JUMPDEST JUMPDEST DUP1 PUSH1 0x40 MSTORE POP POP POP JUMP JUMPDEST PUSH0 PUSH2 0x681 PUSH2 0x593 JUMP JUMPDEST SWAP1 POP PUSH2 0x68D DUP3 DUP3 PUSH2 0x647 JUMP JUMPDEST SWAP2 SWAP1 POP JUMP JUMPDEST PUSH0 PUSH8 0xFFFFFFFFFFFFFFFF DUP3 GT ISZERO PUSH2 0x6AC JUMPI PUSH2 0x6AB PUSH2 0x61A JUMP JUMPDEST JUMPDEST PUSH2 0x6B5 DUP3 PUSH2 0x51D JUMP JUMPDEST SWAP1 POP PUSH1 0x20 DUP2 ADD SWAP1 POP SWAP2 SWAP1 POP JUMP JUMPDEST DUP3 DUP2 DUP4 CALLDATACOPY PUSH0 DUP4 DUP4 ADD MSTORE POP POP POP JUMP JUMPDEST PUSH0 PUSH2 0x6E2 PUSH2 0x6DD DUP5 PUSH2 0x692 JUMP JUMPDEST PUSH2 0x678 JUMP JUMPDEST SWAP1 POP DUP3 DUP2 MSTORE PUSH1 0x20 DUP2 ADD DUP5 DUP5 DUP5 ADD GT ISZERO PUSH2 0x6FE JUMPI PUSH2 0x6FD PUSH2 0x616 JUMP JUMPDEST JUMPDEST PUSH2 0x709 DUP5 DUP3 DUP6 PUSH2 0x6C2 JUMP JUMPDEST POP SWAP4 SWAP3 POP POP POP JUMP JUMPDEST PUSH0 DUP3 PUSH1 0x1F DUP4 ADD SLT PUSH2 0x725 JUMPI PUSH2 0x724 PUSH2 0x612 JUMP JUMPDEST JUMPDEST DUP2 CALLDATALOAD PUSH2 0x735 DUP5 DUP3 PUSH1 0x20 DUP7 ADD PUSH2 0x6D0 JUMP JUMPDEST SWAP2 POP POP SWAP3 SWAP2 POP POP JUMP JUMPDEST PUSH0 DUP1 PUSH1 0x40 DUP4 DUP6 SUB SLT ISZERO PUSH2 0x754 JUMPI PUSH2 0x753 PUSH2 0x59C JUMP JUMPDEST JUMPDEST PUSH0 PUSH2 0x761 DUP6 DUP3 DUP7 ADD PUSH2 0x5BA JUMP JUMPDEST SWAP3 POP POP PUSH1 0x20 DUP4 ADD CALLDATALOAD PUSH8 0xFFFFFFFFFFFFFFFF DUP2 GT ISZERO PUSH2 0x782 JUMPI PUSH2 0x781 PUSH2 0x5A0 JUMP JUMPDEST JUMPDEST PUSH2 0x78E DUP6 DUP3 DUP7 ADD PUSH2 0x711 JUMP JUMPDEST SWAP2 POP POP SWAP3 POP SWAP3 SWAP1 POP JUMP JUMPDEST PUSH0 DUP1 PUSH1 0x40 DUP4 DUP6 SUB SLT ISZERO PUSH2 0x7AE JUMPI PUSH2 0x7AD PUSH2 0x59C JUMP JUMPDEST JUMPDEST PUSH0 DUP4 ADD CALLDATALOAD PUSH8 0xFFFFFFFFFFFFFFFF DUP2 GT ISZERO PUSH2 0x7CB JUMPI PUSH2 0x7CA PUSH2 0x5A0 JUMP JUMPDEST JUMPDEST PUSH2 0x7D7 DUP6 DUP3 DUP7 ADD PUSH2 0x711 JUMP JUMPDEST SWAP3 POP POP PUSH1 0x20 PUSH2 0x7E8 DUP6 DUP3 DUP7 ADD PUSH2 0x5BA JUMP JUMPDEST SWAP2 POP POP SWAP3 POP SWAP3 SWAP1 POP JUMP JUMPDEST PUSH0 PUSH1 0x20 DUP3 DUP5 SUB SLT ISZERO PUSH2 0x807 JUMPI PUSH2 0x806 PUSH2 0x59C JUMP JUMPDEST JUMPDEST PUSH0 DUP3 ADD CALLDATALOAD PUSH8 0xFFFFFFFFFFFFFFFF DUP2 GT ISZERO PUSH2 0x824 JUMPI PUSH2 0x823 PUSH2 0x5A0 JUMP JUMPDEST JUMPDEST PUSH2 0x830 DUP5 DUP3 DUP6 ADD PUSH2 0x711 JUMP JUMPDEST SWAP2 POP POP SWAP3 SWAP2 POP POP JUMP JUMPDEST PUSH32 0x4E487B7100000000000000000000000000000000000000000000000000000000 PUSH0 MSTORE PUSH1 0x22 PUSH1 0x4 MSTORE PUSH1 0x24 PUSH0 REVERT JUMPDEST PUSH0 PUSH1 0x2 DUP3 DIV SWAP1 POP PUSH1 0x1 DUP3 AND DUP1 PUSH2 0x87D JUMPI PUSH1 0x7F DUP3 AND SWAP2 POP JUMPDEST PUSH1 0x20 DUP3 LT DUP2 SUB PUSH2 0x890 JUMPI PUSH2 0x88F PUSH2 0x839 JUMP JUMPDEST JUMPDEST POP SWAP2 SWAP1 POP JUMP JUMPDEST PUSH0 DUP2 SWAP1 POP DUP2 PUSH0 MSTORE PUSH1 0x20 PUSH0 KECCAK256 SWAP1 POP SWAP2 SWAP1 POP JUMP JUMPDEST PUSH0 PUSH1 0x20 PUSH1 0x1F DUP4 ADD DIV SWAP1 POP SWAP2 SWAP1 POP JUMP JUMPDEST PUSH0 DUP3 DUP3 SHL SWAP1 POP SWAP3 SWAP2 POP POP JUMP JUMPDEST PUSH0 PUSH1 0x8 DUP4 MUL PUSH2 0x8F2 PUSH32 0xFFFFFFFFFFFFFFFFFFFFFFFFFFFFFFFFFFFFFFFFFFFFFFFFFFFFFFFFFFFFFFFF DUP3 PUSH2 0x8B7 JUMP JUMPDEST PUSH2 0x8FC DUP7 DUP4 PUSH2 0x8B7 JUMP JUMPDEST SWAP6 POP DUP1 NOT DUP5 AND SWAP4 POP DUP1 DUP7 AND DUP5 OR SWAP3 POP POP POP SWAP4 SWAP3 POP POP POP JUMP JUMPDEST PUSH0 DUP2 SWAP1 POP SWAP2 SWAP1 POP JUMP JUMPDEST PUSH0 PUSH2 0x937 PUSH2 0x932 PUSH2 0x92D DUP5 PUSH2 0x4DD JUMP JUMPDEST PUSH2 0x914 JUMP JUMPDEST PUSH2 0x4DD JUMP JUMPDEST SWAP1 POP SWAP2 SWAP1 POP JUMP JUMPDEST PUSH0 DUP2 SWAP1 POP SWAP2 SWAP1 POP JUMP JUMPDEST PUSH2 0x950 DUP4 PUSH2 0x91D JUMP JUMPDEST PUSH2 0x964 PUSH2 0x95C DUP3 PUSH2 0x93E JUMP JUMPDEST DUP5 DUP5 SLOAD PUSH2 0x8C3 JUMP JUMPDEST DUP3 SSTORE POP POP POP POP JUMP JUMPDEST PUSH0 SWAP1 JUMP JUMPDEST PUSH2 0x978 PUSH2 0x96C JUMP JUMPDEST PUSH2 0x983 DUP2 DUP5 DUP5 PUSH2 0x947 JUMP JUMPDEST POP POP POP JUMP JUMPDEST JUMPDEST DUP2 DUP2 LT ISZERO PUSH2 0x9A6 JUMPI PUSH2 0x99B PUSH0 DUP3 PUSH2 0x970 JUMP JUMPDEST PUSH1 0x1 DUP2 ADD SWAP1 POP PUSH2 0x989 JUMP JUMPDEST POP POP JUMP JUMPDEST PUSH1 0x1F DUP3 GT ISZERO PUSH2 0x9EB JUMPI PUSH2 0x9BC DUP2 PUSH2 0x896 JUMP JUMPDEST PUSH2 0x9C5 DUP5 PUSH2 0x8A8 JUMP JUMPDEST DUP2 ADD PUSH1 0x20 DUP6 LT ISZERO PUSH2 0x9D4 JUMPI DUP2 SWAP1 POP JUMPDEST PUSH2 0x9E8 PUSH2 0x9E0 DUP6 PUSH2 0x8A8 JUMP JUMPDEST DUP4 ADD DUP3 PUSH2 0x988 JUMP JUMPDEST POP POP JUMPDEST POP POP POP JUMP JUMPDEST PUSH0 DUP3 DUP3 SHR SWAP1 POP SWAP3 SWAP2 POP POP JUMP JUMPDEST PUSH0 PUSH2 0xA0B PUSH0 NOT DUP5 PUSH1 0x8 MUL PUSH2 0x9F0 JUMP JUMPDEST NOT DUP1 DUP4 AND SWAP2 POP POP SWAP3 SWAP2 POP POP JUMP JUMPDEST PUSH0 PUSH2 0xA23 DUP4 DUP4 PUSH2 0x9FC JUMP JUMPDEST SWAP2 POP DUP3 PUSH1 0x2 MUL DUP3 OR SWAP1 POP SWAP3 SWAP2 POP POP JUMP JUMPDEST PUSH2 0xA3C DUP3 PUSH2 0x4F5 JUMP JUMPDEST PUSH8 0xFFFFFFFFFFFFFFFF DUP2 GT ISZERO PUSH2 0xA55 JUMPI PUSH2 0xA54 PUSH2 0x61A JUMP JUMPDEST JUMPDEST PUSH2 0xA5F DUP3 SLOAD PUSH2 0x866 JUMP JUMPDEST PUSH2 0xA6A DUP3 DUP3 DUP6 PUSH2 0x9AA JUMP JUMPDEST PUSH0 PUSH1 0x20 SWAP1 POP PUSH1 0x1F DUP4 GT PUSH1 0x1 DUP2 EQ PUSH2 0xA9B JUMPI PUSH0 DUP5 ISZERO PUSH2 0xA89 JUMPI DUP3 DUP8 ADD MLOAD SWAP1 POP JUMPDEST PUSH2 0xA93 DUP6 DUP3 PUSH2 0xA18 JUMP JUMPDEST DUP7 SSTORE POP PUSH2 0xAFA JUMP JUMPDEST PUSH1 0x1F NOT DUP5 AND PUSH2 0xAA9 DUP7 PUSH2 0x896 JUMP JUMPDEST PUSH0 JUMPDEST DUP3 DUP2 LT ISZERO PUSH2 0xAD0 JUMPI DUP5 DUP10 ADD MLOAD DUP3 SSTORE PUSH1 0x1 DUP3 ADD SWAP2 POP PUSH1 0x20 DUP6 ADD SWAP5 POP PUSH1 0x20 DUP2 ADD SWAP1 POP PUSH2 0xAAB JUMP JUMPDEST DUP7 DUP4 LT ISZERO PUSH2 0xAED JUMPI DUP5 DUP10 ADD MLOAD PUSH2 0xAE9 PUSH1 0x1F DUP10 AND DUP3 PUSH2 0x9FC JUMP JUMPDEST DUP4 SSTORE POP JUMPDEST PUSH1 0x1 PUSH1 0x2 DUP9 MUL ADD DUP9 SSTORE POP POP POP JUMPDEST POP POP POP POP POP POP JUMP JUMPDEST PUSH0 DUP2 SWAP1 POP SWAP3 SWAP2 POP POP JUMP JUMPDEST PUSH0 PUSH2 0xB16 DUP3 PUSH2 0x4F5 JUMP JUMPDEST PUSH2 0xB20 DUP2 DUP6 PUSH2 0xB02 JUMP JUMPDEST SWAP4 POP PUSH2 0xB30 DUP2 DUP6 PUSH1 0x20 DUP7 ADD PUSH2 0x50F JUMP JUMPDEST DUP1 DUP5 ADD SWAP2 POP POP SWAP3 SWAP2 POP POP JUMP JUMPDEST PUSH0 PUSH2 0xB47 DUP3 DUP5 PUSH2 0xB0C JUMP JUMPDEST SWAP2 POP DUP2 SWAP1 POP SWAP3 SWAP2 POP POP JUMP INVALID LOG2 PUSH5 0x6970667358 0x22 SLT KECCAK256 0xE6 COINBASE SWAP15 0xCA CREATE SMOD GASPRICE PUSH24 0xFEB05CB74DB8A180AC9C05A9D67BADF83AF788A9F8AC4B6C PUSH5 0x736F6C6343 STOP ADDMOD BYTE STOP CALLER "
				},
				"gasEstimates": {
					"creation": {
						"codeDepositCost": "590400",
						"executionCost": "infinite",
						"totalCost": "infinite"
					},
					"external": {
						"addStudent(uint256,string)": "infinite",
						"addToMap(string,uint256)": "infinite",
						"getVal()": "2520",
						"list(uint256)": "infinite",
						"marks(string)": "infinite",
						"purefunction()": "332",
						"setVal(uint256)": "22559",
						"specialFunction(uint256)": "22619",
						"student1()": "infinite",
						"student2()": "infinite",
						"value()": "2491"
					}
				},
				"methodIdentifiers": {
					"addStudent(uint256,string)": "42ecc52a",
					"addToMap(string,uint256)": "c6b8d7f9",
					"getVal()": "e1cb0e52",
					"list(uint256)": "80c9419e",
					"marks(string)": "eb05886b",
					"purefunction()": "4c859944",
					"setVal(uint256)": "3d4197f0",
					"specialFunction(uint256)": "cdd6c60c",
					"student1()": "361a80e6",
					"student2()": "113abe1f",
					"value()": "3fa4f245"
				}
			},
			"storageLayout": {
				"storage": [
					{
						"astId": 3,
						"contract": "simpleStorage.sol:SimpleStorage",
						"label": "value",
						"offset": 0,
						"slot": "0",
						"type": "t_uint256"
					},
					{
						"astId": 6,
						"contract": "simpleStorage.sol:SimpleStorage",
						"label": "secretValue",
						"offset": 0,
						"slot": "1",
						"type": "t_uint256"
					},
					{
						"astId": 57,
						"contract": "simpleStorage.sol:SimpleStorage",
						"label": "student1",
						"offset": 0,
						"slot": "2",
						"type": "t_struct(Student)50_storage"
					},
					{
						"astId": 64,
						"contract": "simpleStorage.sol:SimpleStorage",
						"label": "student2",
						"offset": 0,
						"slot": "4",
						"type": "t_struct(Student)50_storage"
					},
					{
						"astId": 68,
						"contract": "simpleStorage.sol:SimpleStorage",
						"label": "list",
						"offset": 0,
						"slot": "6",
						"type": "t_array(t_struct(Student)50_storage)dyn_storage"
					},
					{
						"astId": 89,
						"contract": "simpleStorage.sol:SimpleStorage",
						"label": "marks",
						"offset": 0,
						"slot": "7",
						"type": "t_mapping(t_string_memory_ptr,t_uint256)"
					}
				],
				"types": {
					"t_array(t_struct(Student)50_storage)dyn_storage": {
						"base": "t_struct(Student)50_storage",
						"encoding": "dynamic_array",
						"label": "struct SimpleStorage.Student[]",
						"numberOfBytes": "32"
					},
					"t_mapping(t_string_memory_ptr,t_uint256)": {
						"encoding": "mapping",
						"key": "t_string_memory_ptr",
						"label": "mapping(string => uint256)",
						"numberOfBytes": "32",
						"value": "t_uint256"
					},
					"t_string_memory_ptr": {
						"encoding": "bytes",
						"label": "string",
						"numberOfBytes": "32"
					},
					"t_string_storage": {
						"encoding": "bytes",
						"label": "string",
						"numberOfBytes": "32"
					},
					"t_struct(Student)50_storage": {
						"encoding": "inplace",
						"label": "struct SimpleStorage.Student",
						"members": [
							{
								"astId": 47,
								"contract": "simpleStorage.sol:SimpleStorage",
								"label": "id",
								"offset": 0,
								"slot": "0",
								"type": "t_uint256"
							},
							{
								"astId": 49,
								"contract": "simpleStorage.sol:SimpleStorage",
								"label": "name",
								"offset": 0,
								"slot": "1",
								"type": "t_string_storage"
							}
						],
						"numberOfBytes": "64"
					},
					"t_uint256": {
						"encoding": "inplace",
						"label": "uint256",
						"numberOfBytes": "32"
					}
				}
			},
			"userdoc": {
				"kind": "user",
				"methods": {},
				"version": 1
			}
		}
	}
}